{
  "_format": "hh-sol-artifact-1",
  "contractName": "CurveAMM",
  "sourceName": "contracts/CurveAMM.sol",
  "abi": [
    {
      "inputs": [
        {
          "internalType": "address",
          "name": "_token1",
          "type": "address"
        },
        {
          "internalType": "address",
          "name": "_token2",
          "type": "address"
        }
      ],
      "stateMutability": "nonpayable",
      "type": "constructor"
    },
    {
      "anonymous": false,
      "inputs": [
        {
          "indexed": true,
          "internalType": "address",
          "name": "sender",
          "type": "address"
        },
        {
          "indexed": false,
          "internalType": "uint256",
          "name": "amount1",
          "type": "uint256"
        },
        {
          "indexed": false,
          "internalType": "uint256",
          "name": "amount2",
          "type": "uint256"
        },
        {
          "indexed": true,
          "internalType": "address",
          "name": "to",
          "type": "address"
        }
      ],
      "name": "Burn",
      "type": "event"
    },
    {
      "anonymous": false,
      "inputs": [
        {
          "indexed": true,
          "internalType": "address",
          "name": "sender",
          "type": "address"
        },
        {
          "indexed": false,
          "internalType": "uint256",
          "name": "amount1",
          "type": "uint256"
        },
        {
          "indexed": false,
          "internalType": "uint256",
          "name": "amount2",
          "type": "uint256"
        }
      ],
      "name": "Mint",
      "type": "event"
    },
    {
      "inputs": [],
      "name": "A",
      "outputs": [
        {
          "internalType": "uint8",
          "name": "",
          "type": "uint8"
        }
      ],
      "stateMutability": "view",
      "type": "function"
    },
    {
      "inputs": [
        {
          "internalType": "address",
          "name": "",
          "type": "address"
        }
      ],
      "name": "LPbalanceOf",
      "outputs": [
        {
          "internalType": "uint256",
          "name": "",
          "type": "uint256"
        }
      ],
      "stateMutability": "view",
      "type": "function"
    },
    {
      "inputs": [],
      "name": "LPtokenCurve",
      "outputs": [
        {
          "internalType": "contract LPTokenCurve",
          "name": "",
          "type": "address"
        }
      ],
      "stateMutability": "view",
      "type": "function"
    },
    {
      "inputs": [],
      "name": "LPtotalSupply",
      "outputs": [
        {
          "internalType": "uint256",
          "name": "",
          "type": "uint256"
        }
      ],
      "stateMutability": "view",
      "type": "function"
    },
    {
      "inputs": [],
      "name": "N",
      "outputs": [
        {
          "internalType": "uint8",
          "name": "",
          "type": "uint8"
        }
      ],
      "stateMutability": "view",
      "type": "function"
    },
    {
      "inputs": [
        {
          "internalType": "uint256",
          "name": "_amount1",
          "type": "uint256"
        },
        {
          "internalType": "uint256",
          "name": "_amount2",
          "type": "uint256"
        }
      ],
      "name": "addLiquidity",
      "outputs": [],
      "stateMutability": "nonpayable",
      "type": "function"
    },
    {
      "inputs": [
        {
          "internalType": "uint256",
          "name": "amount1",
          "type": "uint256"
        },
        {
          "internalType": "uint256",
          "name": "amount2",
          "type": "uint256"
        }
      ],
      "name": "calculateLiquidity",
      "outputs": [
        {
          "internalType": "uint256",
          "name": "",
          "type": "uint256"
        }
      ],
      "stateMutability": "view",
      "type": "function"
    },
    {
      "inputs": [
        {
          "internalType": "uint256",
          "name": "liquidity",
          "type": "uint256"
        },
        {
          "internalType": "address",
          "name": "token",
          "type": "address"
        }
      ],
      "name": "calculateTokenAmount",
      "outputs": [
        {
          "internalType": "uint256",
          "name": "",
          "type": "uint256"
        }
      ],
      "stateMutability": "view",
      "type": "function"
    },
    {
      "inputs": [
        {
          "internalType": "address",
          "name": "fromToken",
          "type": "address"
        },
        {
          "internalType": "address",
          "name": "toToken",
          "type": "address"
        },
        {
          "internalType": "uint256",
          "name": "amount",
          "type": "uint256"
        }
      ],
      "name": "getExchangeRate",
      "outputs": [
        {
          "internalType": "uint256",
          "name": "",
          "type": "uint256"
        }
      ],
      "stateMutability": "view",
      "type": "function"
    },
    {
      "inputs": [],
      "name": "getLPTokenAddress",
      "outputs": [
        {
          "internalType": "address",
          "name": "",
          "type": "address"
        }
      ],
      "stateMutability": "view",
      "type": "function"
    },
    {
      "inputs": [],
      "name": "getReserves",
      "outputs": [
        {
          "internalType": "uint256",
          "name": "",
          "type": "uint256"
        },
        {
          "internalType": "uint256",
          "name": "",
          "type": "uint256"
        }
      ],
      "stateMutability": "view",
      "type": "function"
    },
    {
      "inputs": [],
      "name": "product",
      "outputs": [
        {
          "internalType": "uint256",
          "name": "",
          "type": "uint256"
        }
      ],
      "stateMutability": "view",
      "type": "function"
    },
    {
      "inputs": [
        {
          "internalType": "uint256",
          "name": "amount",
          "type": "uint256"
        }
      ],
      "name": "removeLiquidity",
      "outputs": [],
      "stateMutability": "nonpayable",
      "type": "function"
    },
    {
      "inputs": [],
      "name": "reserve1",
      "outputs": [
        {
          "internalType": "uint256",
          "name": "",
          "type": "uint256"
        }
      ],
      "stateMutability": "view",
      "type": "function"
    },
    {
      "inputs": [],
      "name": "reserve2",
      "outputs": [
        {
          "internalType": "uint256",
          "name": "",
          "type": "uint256"
        }
      ],
      "stateMutability": "view",
      "type": "function"
    },
    {
      "inputs": [
        {
          "internalType": "uint256",
          "name": "y",
          "type": "uint256"
        }
      ],
      "name": "sqrt",
      "outputs": [
        {
          "internalType": "uint256",
          "name": "",
          "type": "uint256"
        }
      ],
      "stateMutability": "pure",
      "type": "function"
    },
    {
      "inputs": [
        {
          "internalType": "address",
          "name": "_from",
          "type": "address"
        },
        {
          "internalType": "address",
          "name": "_to",
          "type": "address"
        },
        {
          "internalType": "uint256",
          "name": "_fromAmount",
          "type": "uint256"
        },
        {
          "internalType": "uint256",
          "name": "_toAmount",
          "type": "uint256"
        }
      ],
      "name": "swap",
      "outputs": [],
      "stateMutability": "nonpayable",
      "type": "function"
    },
    {
      "inputs": [],
      "name": "token1",
      "outputs": [
        {
          "internalType": "address",
          "name": "",
          "type": "address"
        }
      ],
      "stateMutability": "view",
      "type": "function"
    },
    {
      "inputs": [],
      "name": "token2",
      "outputs": [
        {
          "internalType": "address",
          "name": "",
          "type": "address"
        }
      ],
      "stateMutability": "view",
      "type": "function"
    }
  ],
  "bytecode": "0x60806040523480156200001157600080fd5b5060405162004ece38038062004ece83398181016040528101906200003791906200015c565b816000806101000a81548173ffffffffffffffffffffffffffffffffffffffff021916908373ffffffffffffffffffffffffffffffffffffffff16021790555080600160006101000a81548173ffffffffffffffffffffffffffffffffffffffff021916908373ffffffffffffffffffffffffffffffffffffffff160217905550604051620000c69062000137565b620000d190620001f1565b604051809103906000f080158015620000ee573d6000803e3d6000fd5b50600260006101000a81548173ffffffffffffffffffffffffffffffffffffffff021916908373ffffffffffffffffffffffffffffffffffffffff1602179055505050620002de565b611c0b80620032c383390190565b6000815190506200015681620002c4565b92915050565b600080604083850312156200017657620001756200026d565b5b6000620001868582860162000145565b9250506020620001998582860162000145565b9150509250929050565b6000620001b2600d8362000228565b9150620001bf8262000272565b602082019050919050565b6000620001d960078362000228565b9150620001e6826200029b565b602082019050919050565b600060408201905081810360008301526200020c81620001a3565b905081810360208301526200022181620001ca565b9050919050565b600082825260208201905092915050565b600062000246826200024d565b9050919050565b600073ffffffffffffffffffffffffffffffffffffffff82169050919050565b600080fd5b7f4c50437572766520546f6b656e00000000000000000000000000000000000000600082015250565b7f4c50437572766500000000000000000000000000000000000000000000000000600082015250565b620002cf8162000239565b8114620002db57600080fd5b50565b612fd580620002ee6000396000f3fe608060405234801561001057600080fd5b50600436106101215760003560e01c80639c8f9f23116100ad578063d21220a711610071578063d21220a7146102fd578063e371817e1461031b578063e471cfb81461034b578063f446c1d01461037b578063fe0291561461039957610121565b80639c8f9f231461026b5780639cd441da14610287578063bf9ce952146102a3578063c9e525df146102c1578063c9e57aa6146102df57610121565b80635c0b9a2b116100f45780635c0b9a2b1461019f578063677342ce146101bd5780636b441d8a146101ed57806383933cc91461021d578063926aa5f11461023b57610121565b80630902f1ac1461012657806318e763e31461014557806325be124e146101635780635a76f25e14610181575b600080fd5b61012e6103b5565b60405161013c929190612928565b60405180910390f35b61014d6103c6565b60405161015a9190612770565b60405180910390f35b61016b6103ec565b60405161017891906126f5565b60405180910390f35b610189610412565b604051610196919061290d565b60405180910390f35b6101a7610418565b6040516101b4919061290d565b60405180910390f35b6101d760048036038101906101d29190612425565b61041e565b6040516101e4919061290d565b60405180910390f35b6102076004803603810190610202919061233e565b6104f2565b604051610214919061290d565b60405180910390f35b6102256107ab565b604051610232919061290d565b60405180910390f35b610255600480360381019061025091906124bf565b6107b1565b604051610262919061290d565b60405180910390f35b61028560048036038101906102809190612425565b610b92565b005b6102a1600480360381019061029c91906124bf565b610fde565b005b6102ab611711565b6040516102b8919061290d565b60405180910390f35b6102c9611717565b6040516102d69190612951565b60405180910390f35b6102e761171c565b6040516102f491906126f5565b60405180910390f35b610305611746565b60405161031291906126f5565b60405180910390f35b6103356004803603810190610330919061247f565b61176a565b604051610342919061290d565b60405180910390f35b61036560048036038101906103609190612311565b6119c0565b604051610372919061290d565b60405180910390f35b6103836119d8565b6040516103909190612951565b60405180910390f35b6103b360048036038101906103ae9190612391565b6119dd565b005b600080600454600554915091509091565b600260009054906101000a900473ffffffffffffffffffffffffffffffffffffffff1681565b600160009054906101000a900473ffffffffffffffffffffffffffffffffffffffff1681565b60045481565b60055481565b60008061046260026104546001610446670de0b6b3a764000088611dc090919063ffffffff16565b611dd690919063ffffffff16565b611dec90919063ffffffff16565b90506000610481670de0b6b3a764000085611dc090919063ffffffff16565b90505b808210156104e8578190506104e160026104d3846104c5866104b7670de0b6b3a76400008b611dc090919063ffffffff16565b611dec90919063ffffffff16565b611dd690919063ffffffff16565b611dec90919063ffffffff16565b9150610484565b8092505050919050565b60008060006104ff61229b565b60008054906101000a900473ffffffffffffffffffffffffffffffffffffffff1673ffffffffffffffffffffffffffffffffffffffff168773ffffffffffffffffffffffffffffffffffffffff161480156105a75750600160009054906101000a900473ffffffffffffffffffffffffffffffffffffffff1673ffffffffffffffffffffffffffffffffffffffff168673ffffffffffffffffffffffffffffffffffffffff16145b156105fb57600454816000600281106105c3576105c2612c74565b5b602002018181525050600554816001600281106105e3576105e2612c74565b5b60200201818152505060045492506005549150610733565b600160009054906101000a900473ffffffffffffffffffffffffffffffffffffffff1673ffffffffffffffffffffffffffffffffffffffff168773ffffffffffffffffffffffffffffffffffffffff161480156106a3575060008054906101000a900473ffffffffffffffffffffffffffffffffffffffff1673ffffffffffffffffffffffffffffffffffffffff168673ffffffffffffffffffffffffffffffffffffffff16145b156106f757600554816000600281106106bf576106be612c74565b5b602002018181525050600454816001600281106106df576106de612c74565b5b60200201818152505060055492506004549150610732565b6040517f08c379a0000000000000000000000000000000000000000000000000000000008152600401610729906127ed565b60405180910390fd5b5b6000858260006002811061074a57610749612c74565b5b60200201516107599190612988565b905060008260016002811061077157610770612c74565b5b602002015190506000610788600060018587611e02565b9050600081836107989190612adb565b9050809750505050505050509392505050565b60035481565b60008060008054906101000a900473ffffffffffffffffffffffffffffffffffffffff1673ffffffffffffffffffffffffffffffffffffffff166370a08231306040518263ffffffff1660e01b815260040161080d91906126f5565b60206040518083038186803b15801561082557600080fd5b505afa158015610839573d6000803e3d6000fd5b505050506040513d601f19601f8201168201806040525081019061085d9190612452565b90506000600160009054906101000a900473ffffffffffffffffffffffffffffffffffffffff1673ffffffffffffffffffffffffffffffffffffffff166370a08231306040518263ffffffff1660e01b81526004016108bc91906126f5565b60206040518083038186803b1580156108d457600080fd5b505afa1580156108e8573d6000803e3d6000fd5b505050506040513d601f19601f8201168201806040525081019061090c9190612452565b9050600080600260009054906101000a900473ffffffffffffffffffffffffffffffffffffffff1673ffffffffffffffffffffffffffffffffffffffff166318160ddd6040518163ffffffff1660e01b815260040160206040518083038186803b15801561097957600080fd5b505afa15801561098d573d6000803e3d6000fd5b505050506040513d601f19601f820116820180604052508101906109b19190612452565b14156109f3576109ec6109e7670de0b6b3a76400006109d9888a611dc090919063ffffffff16565b611dec90919063ffffffff16565b61041e565b9050610b86565b6000610a2283610a14670de0b6b3a764000089611dc090919063ffffffff16565b611dec90919063ffffffff16565b610a4f85610a41670de0b6b3a76400008b611dc090919063ffffffff16565b611dec90919063ffffffff16565b10610a8657610a8183610a73670de0b6b3a764000089611dc090919063ffffffff16565b611dec90919063ffffffff16565b610ab4565b610ab384610aa5670de0b6b3a76400008a611dc090919063ffffffff16565b611dec90919063ffffffff16565b5b9050610b82670de0b6b3a7640000610b74600260009054906101000a900473ffffffffffffffffffffffffffffffffffffffff1673ffffffffffffffffffffffffffffffffffffffff166318160ddd6040518163ffffffff1660e01b815260040160206040518083038186803b158015610b2d57600080fd5b505afa158015610b41573d6000803e3d6000fd5b505050506040513d601f19601f82011682018060405250810190610b659190612452565b84611dc090919063ffffffff16565b611dec90919063ffffffff16565b9150505b80935050505092915050565b6000600260009054906101000a900473ffffffffffffffffffffffffffffffffffffffff1673ffffffffffffffffffffffffffffffffffffffff166370a08231336040518263ffffffff1660e01b8152600401610bef91906126f5565b60206040518083038186803b158015610c0757600080fd5b505afa158015610c1b573d6000803e3d6000fd5b505050506040513d601f19601f82011682018060405250810190610c3f9190612452565b905081811015610c84576040517f08c379a0000000000000000000000000000000000000000000000000000000008152600401610c7b9061282d565b60405180910390fd5b6000610cb08360008054906101000a900473ffffffffffffffffffffffffffffffffffffffff1661176a565b90506000610ce084600160009054906101000a900473ffffffffffffffffffffffffffffffffffffffff1661176a565b9050600082118015610cf25750600081115b610d31576040517f08c379a0000000000000000000000000000000000000000000000000000000008152600401610d289061286d565b60405180910390fd5b600260009054906101000a900473ffffffffffffffffffffffffffffffffffffffff1673ffffffffffffffffffffffffffffffffffffffff16639dc29fac33866040518363ffffffff1660e01b8152600401610d8e929190612747565b602060405180830381600087803b158015610da857600080fd5b505af1158015610dbc573d6000803e3d6000fd5b505050506040513d601f19601f82011682018060405250810190610de091906123f8565b5060008054906101000a900473ffffffffffffffffffffffffffffffffffffffff1673ffffffffffffffffffffffffffffffffffffffff1663a9059cbb33846040518363ffffffff1660e01b8152600401610e3c929190612747565b602060405180830381600087803b158015610e5657600080fd5b505af1158015610e6a573d6000803e3d6000fd5b505050506040513d601f19601f82011682018060405250810190610e8e91906123f8565b50600160009054906101000a900473ffffffffffffffffffffffffffffffffffffffff1673ffffffffffffffffffffffffffffffffffffffff1663a9059cbb33836040518363ffffffff1660e01b8152600401610eec929190612747565b602060405180830381600087803b158015610f0657600080fd5b505af1158015610f1a573d6000803e3d6000fd5b505050506040513d601f19601f82011682018060405250810190610f3e91906123f8565b508160046000828254610f519190612adb565b925050819055508060056000828254610f6a9190612adb565b925050819055503373ffffffffffffffffffffffffffffffffffffffff163373ffffffffffffffffffffffffffffffffffffffff167fdccd412f0b1252819cb1fd330b93224ca42612892bb3f4f789976e6d819364968484604051610fd0929190612928565b60405180910390a350505050565b60008210158015610ff0575060008110155b61102f576040517f08c379a0000000000000000000000000000000000000000000000000000000008152600401611026906128ad565b60405180910390fd5b60008054906101000a900473ffffffffffffffffffffffffffffffffffffffff1673ffffffffffffffffffffffffffffffffffffffff166370a08231336040518263ffffffff1660e01b815260040161108891906126f5565b60206040518083038186803b1580156110a057600080fd5b505afa1580156110b4573d6000803e3d6000fd5b505050506040513d601f19601f820116820180604052508101906110d89190612452565b82111580156111915750600160009054906101000a900473ffffffffffffffffffffffffffffffffffffffff1673ffffffffffffffffffffffffffffffffffffffff166370a08231336040518263ffffffff1660e01b815260040161113d91906126f5565b60206040518083038186803b15801561115557600080fd5b505afa158015611169573d6000803e3d6000fd5b505050506040513d601f19601f8201168201806040525081019061118d9190612452565b8111155b6111d0576040517f08c379a00000000000000000000000000000000000000000000000000000000081526004016111c7906128ed565b60405180910390fd5b60006004541480156111e457506000600554145b156113a35760008054906101000a900473ffffffffffffffffffffffffffffffffffffffff1673ffffffffffffffffffffffffffffffffffffffff166323b872dd3330856040518463ffffffff1660e01b815260040161124693929190612710565b602060405180830381600087803b15801561126057600080fd5b505af1158015611274573d6000803e3d6000fd5b505050506040513d601f19601f8201168201806040525081019061129891906123f8565b80156113515750600160009054906101000a900473ffffffffffffffffffffffffffffffffffffffff1673ffffffffffffffffffffffffffffffffffffffff166323b872dd3330846040518463ffffffff1660e01b81526004016112fe93929190612710565b602060405180830381600087803b15801561131857600080fd5b505af115801561132c573d6000803e3d6000fd5b505050506040513d601f19601f8201168201806040525081019061135091906123f8565b5b611390576040517f08c379a00000000000000000000000000000000000000000000000000000000081526004016113879061280d565b60405180910390fd5b816004819055508060058190555061157d565b60008054906101000a900473ffffffffffffffffffffffffffffffffffffffff1673ffffffffffffffffffffffffffffffffffffffff166323b872dd3330856040518463ffffffff1660e01b815260040161140093929190612710565b602060405180830381600087803b15801561141a57600080fd5b505af115801561142e573d6000803e3d6000fd5b505050506040513d601f19601f8201168201806040525081019061145291906123f8565b801561150b5750600160009054906101000a900473ffffffffffffffffffffffffffffffffffffffff1673ffffffffffffffffffffffffffffffffffffffff166323b872dd3330846040518463ffffffff1660e01b81526004016114b893929190612710565b602060405180830381600087803b1580156114d257600080fd5b505af11580156114e6573d6000803e3d6000fd5b505050506040513d601f19601f8201168201806040525081019061150a91906123f8565b5b61154a576040517f08c379a00000000000000000000000000000000000000000000000000000000081526004016115419061280d565b60405180910390fd5b816004600082825461155c9190612988565b9250508190555080600560008282546115759190612988565b925050819055505b600061158983836107b1565b9050600081116115ce576040517f08c379a00000000000000000000000000000000000000000000000000000000081526004016115c59061288d565b60405180910390fd5b600260009054906101000a900473ffffffffffffffffffffffffffffffffffffffff1673ffffffffffffffffffffffffffffffffffffffff166340c10f1933836040518363ffffffff1660e01b815260040161162b929190612747565b602060405180830381600087803b15801561164557600080fd5b505af1158015611659573d6000803e3d6000fd5b505050506040513d601f19601f8201168201806040525081019061167d91906123f8565b6116bc576040517f08c379a00000000000000000000000000000000000000000000000000000000081526004016116b39061284d565b60405180910390fd5b3373ffffffffffffffffffffffffffffffffffffffff167f4c209b5fc8ad50758f13e2e1088ba56a560dff690a1c6fef26394f4c03821c4f8484604051611704929190612928565b60405180910390a2505050565b60065481565b600281565b6000600260009054906101000a900473ffffffffffffffffffffffffffffffffffffffff16905090565b60008054906101000a900473ffffffffffffffffffffffffffffffffffffffff1681565b60008060009054906101000a900473ffffffffffffffffffffffffffffffffffffffff1673ffffffffffffffffffffffffffffffffffffffff168273ffffffffffffffffffffffffffffffffffffffff1614806118145750600160009054906101000a900473ffffffffffffffffffffffffffffffffffffffff1673ffffffffffffffffffffffffffffffffffffffff168273ffffffffffffffffffffffffffffffffffffffff16145b611853576040517f08c379a000000000000000000000000000000000000000000000000000000000815260040161184a906128cd565b60405180910390fd5b600083141561186557600090506119ba565b60008273ffffffffffffffffffffffffffffffffffffffff166370a08231306040518263ffffffff1660e01b81526004016118a091906126f5565b60206040518083038186803b1580156118b857600080fd5b505afa1580156118cc573d6000803e3d6000fd5b505050506040513d601f19601f820116820180604052508101906118f09190612452565b90506119b6600260009054906101000a900473ffffffffffffffffffffffffffffffffffffffff1673ffffffffffffffffffffffffffffffffffffffff166318160ddd6040518163ffffffff1660e01b815260040160206040518083038186803b15801561195d57600080fd5b505afa158015611971573d6000803e3d6000fd5b505050506040513d601f19601f820116820180604052508101906119959190612452565b6119a88387611dc090919063ffffffff16565b611dec90919063ffffffff16565b9150505b92915050565b60076020528060005260406000206000915090505481565b600a81565b8273ffffffffffffffffffffffffffffffffffffffff168473ffffffffffffffffffffffffffffffffffffffff161415611a4c576040517f08c379a0000000000000000000000000000000000000000000000000000000008152600401611a43906127ad565b60405180910390fd5b600082118015611a5c5750600081115b611a9b576040517f08c379a0000000000000000000000000000000000000000000000000000000008152600401611a92906128ad565b60405180910390fd5b600080839150829050611ac56040518060600160405280602b8152602001612f75602b9139611fd1565b8573ffffffffffffffffffffffffffffffffffffffff166323b872dd3330856040518463ffffffff1660e01b8152600401611b0293929190612710565b602060405180830381600087803b158015611b1c57600080fd5b505af1158015611b30573d6000803e3d6000fd5b505050506040513d601f19601f82011682018060405250810190611b5491906123f8565b611b93576040517f08c379a0000000000000000000000000000000000000000000000000000000008152600401611b8a9061280d565b60405180910390fd5b611bb4604051806080016040528060478152602001612ee860479139611fd1565b8473ffffffffffffffffffffffffffffffffffffffff1663a9059cbb33836040518363ffffffff1660e01b8152600401611bef929190612747565b602060405180830381600087803b158015611c0957600080fd5b505af1158015611c1d573d6000803e3d6000fd5b505050506040513d601f19601f82011682018060405250810190611c4191906123f8565b611c80576040517f08c379a0000000000000000000000000000000000000000000000000000000008152600401611c779061280d565b60405180910390fd5b611ca1604051806080016040528060468152602001612f2f60469139611fd1565b60008054906101000a900473ffffffffffffffffffffffffffffffffffffffff1673ffffffffffffffffffffffffffffffffffffffff168673ffffffffffffffffffffffffffffffffffffffff16148015611d495750600160009054906101000a900473ffffffffffffffffffffffffffffffffffffffff1673ffffffffffffffffffffffffffffffffffffffff168573ffffffffffffffffffffffffffffffffffffffff16145b15611d85578160046000828254611d609190612988565b925050819055508060056000828254611d799190612adb565b92505081905550611db8565b8160056000828254611d979190612988565b925050819055508060046000828254611db09190612adb565b925050819055505b505050505050565b60008183611dce9190612a46565b905092915050565b60008183611de49190612988565b905092915050565b60008183611dfa9190612a15565b905092915050565b6000806002600a611e139190612aa0565b60ff1690506000611e238461206a565b90506000808290506000805b600260ff16811015611ebb578a811415611e4b57889150611e73565b89811415611e5857611eaa565b878160028110611e6b57611e6a612c74565b5b602002015191505b8184611e7f9190612988565b935081600260ff16611e919190612a46565b8584611e9d9190612a46565b611ea79190612a15565b92505b80611eb490612bcd565b9050611e2f565b5084600260ff16611ecc9190612a46565b8483611ed89190612a46565b611ee29190612a15565b915060008585611ef29190612a15565b84611efd9190612988565b905060008086905060005b60ff811015611f8d578192508784836002611f239190612a46565b611f2d9190612988565b611f379190612adb565b868384611f449190612a46565b611f4e9190612988565b611f589190612a15565b91506001611f668385612242565b11611f7c57819950505050505050505050611fc9565b80611f8690612bcd565b9050611f08565b506040517f08c379a0000000000000000000000000000000000000000000000000000000008152600401611fc0906127cd565b60405180910390fd5b949350505050565b61206781604051602401611fe5919061278b565b6040516020818303038152906040527f41304fac000000000000000000000000000000000000000000000000000000007bffffffffffffffffffffffffffffffffffffffffffffffffffffffff19166020820180517bffffffffffffffffffffffffffffffffffffffffffffffffffffffff8381831617835250505050612272565b50565b60008060005b600260ff168110156120b45783816002811061208f5761208e612c74565b5b60200201518261209f9190612988565b915080806120ac90612bcd565b915050612070565b5060008114156120c857600091505061223d565b60008082905060006002600a6120de9190612aa0565b60ff16905060005b60ff81101561223457600083905060005b600260ff16811015612161576001600260ff168a836002811061211d5761211c612c74565b5b602002015161212c9190612a46565b6121369190612988565b85836121429190612a46565b61214c9190612a15565b9150808061215990612bcd565b9150506120f7565b50839450806001600261217491906129de565b60ff166121819190612a46565b8460018561218f9190612adb565b6121999190612a46565b6121a39190612988565b84600260ff16836121b49190612a46565b88866121c09190612a46565b6121ca9190612988565b6121d49190612a46565b6121de9190612a15565b93508484111561220657600185856121f69190612adb565b116122015750612234565b612220565b600184866122149190612adb565b1161221f5750612234565b5b50808061222c90612bcd565b9150506120e6565b50819450505050505b919050565b60008183101561225d5782826122589190612adb565b61226a565b81836122699190612adb565b5b905092915050565b60008151905060006a636f6e736f6c652e6c6f679050602083016000808483855afa5050505050565b6040518060400160405280600290602082028036833780820191505090505090565b6000813590506122cc81612ea2565b92915050565b6000815190506122e181612eb9565b92915050565b6000813590506122f681612ed0565b92915050565b60008151905061230b81612ed0565b92915050565b60006020828403121561232757612326612ca3565b5b6000612335848285016122bd565b91505092915050565b60008060006060848603121561235757612356612ca3565b5b6000612365868287016122bd565b9350506020612376868287016122bd565b9250506040612387868287016122e7565b9150509250925092565b600080600080608085870312156123ab576123aa612ca3565b5b60006123b9878288016122bd565b94505060206123ca878288016122bd565b93505060406123db878288016122e7565b92505060606123ec878288016122e7565b91505092959194509250565b60006020828403121561240e5761240d612ca3565b5b600061241c848285016122d2565b91505092915050565b60006020828403121561243b5761243a612ca3565b5b6000612449848285016122e7565b91505092915050565b60006020828403121561246857612467612ca3565b5b6000612476848285016122fc565b91505092915050565b6000806040838503121561249657612495612ca3565b5b60006124a4858286016122e7565b92505060206124b5858286016122bd565b9150509250929050565b600080604083850312156124d6576124d5612ca3565b5b60006124e4858286016122e7565b92505060206124f5858286016122e7565b9150509250929050565b61250881612b0f565b82525050565b61251781612b64565b82525050565b60006125288261296c565b6125328185612977565b9350612542818560208601612b9a565b61254b81612ca8565b840191505092915050565b6000612563600b83612977565b915061256e82612cb9565b602082019050919050565b6000612586601183612977565b915061259182612ce2565b602082019050919050565b60006125a9600e83612977565b91506125b482612d0b565b602082019050919050565b60006125cc600f83612977565b91506125d782612d34565b602082019050919050565b60006125ef601683612977565b91506125fa82612d5d565b602082019050919050565b6000612612601883612977565b915061261d82612d86565b602082019050919050565b6000612635601483612977565b915061264082612daf565b602082019050919050565b6000612658601883612977565b915061266382612dd8565b602082019050919050565b600061267b601e83612977565b915061268682612e01565b602082019050919050565b600061269e601583612977565b91506126a982612e2a565b602082019050919050565b60006126c1602983612977565b91506126cc82612e53565b604082019050919050565b6126e081612b4d565b82525050565b6126ef81612b57565b82525050565b600060208201905061270a60008301846124ff565b92915050565b600060608201905061272560008301866124ff565b61273260208301856124ff565b61273f60408301846126d7565b949350505050565b600060408201905061275c60008301856124ff565b61276960208301846126d7565b9392505050565b6000602082019050612785600083018461250e565b92915050565b600060208201905081810360008301526127a5818461251d565b905092915050565b600060208201905081810360008301526127c681612556565b9050919050565b600060208201905081810360008301526127e681612579565b9050919050565b600060208201905081810360008301526128068161259c565b9050919050565b60006020820190508181036000830152612826816125bf565b9050919050565b60006020820190508181036000830152612846816125e2565b9050919050565b6000602082019050818103600083015261286681612605565b9050919050565b6000602082019050818103600083015261288681612628565b9050919050565b600060208201905081810360008301526128a68161264b565b9050919050565b600060208201905081810360008301526128c68161266e565b9050919050565b600060208201905081810360008301526128e681612691565b9050919050565b60006020820190508181036000830152612906816126b4565b9050919050565b600060208201905061292260008301846126d7565b92915050565b600060408201905061293d60008301856126d7565b61294a60208301846126d7565b9392505050565b600060208201905061296660008301846126e6565b92915050565b600081519050919050565b600082825260208201905092915050565b600061299382612b4d565b915061299e83612b4d565b9250827fffffffffffffffffffffffffffffffffffffffffffffffffffffffffffffffff038211156129d3576129d2612c16565b5b828201905092915050565b60006129e982612b57565b91506129f483612b57565b92508260ff03821115612a0a57612a09612c16565b5b828201905092915050565b6000612a2082612b4d565b9150612a2b83612b4d565b925082612a3b57612a3a612c45565b5b828204905092915050565b6000612a5182612b4d565b9150612a5c83612b4d565b9250817fffffffffffffffffffffffffffffffffffffffffffffffffffffffffffffffff0483118215151615612a9557612a94612c16565b5b828202905092915050565b6000612aab82612b57565b9150612ab683612b57565b92508160ff0483118215151615612ad057612acf612c16565b5b828202905092915050565b6000612ae682612b4d565b9150612af183612b4d565b925082821015612b0457612b03612c16565b5b828203905092915050565b6000612b1a82612b2d565b9050919050565b60008115159050919050565b600073ffffffffffffffffffffffffffffffffffffffff82169050919050565b6000819050919050565b600060ff82169050919050565b6000612b6f82612b76565b9050919050565b6000612b8182612b88565b9050919050565b6000612b9382612b2d565b9050919050565b60005b83811015612bb8578082015181840152602081019050612b9d565b83811115612bc7576000848401525b50505050565b6000612bd882612b4d565b91507fffffffffffffffffffffffffffffffffffffffffffffffffffffffffffffffff821415612c0b57612c0a612c16565b5b600182019050919050565b7f4e487b7100000000000000000000000000000000000000000000000000000000600052601160045260246000fd5b7f4e487b7100000000000000000000000000000000000000000000000000000000600052601260045260246000fd5b7f4e487b7100000000000000000000000000000000000000000000000000000000600052603260045260246000fd5b600080fd5b6000601f19601f8301169050919050565b7f53616d6520746f6b656e73000000000000000000000000000000000000000000600082015250565b7f79206469646e277420636f6e7665726765000000000000000000000000000000600082015250565b7f496e76616c696420746f6b656e73000000000000000000000000000000000000600082015250565b7f5472616e73666572206661696c65640000000000000000000000000000000000600082015250565b7f496e73756666696369656e74206c697175696469747900000000000000000000600082015250565b7f4c50546f6b656e4375727665204d696e742066616c7365210000000000000000600082015250565b7f496e76616c696420746f6b656e20616d6f756e74000000000000000000000000600082015250565b7f496e76616c6964206c697175696469747920616d6f756e740000000000000000600082015250565b7f416d6f756e7473206d7573742062652067726561746572207468616e20300000600082015250565b7f496e76616c696420746f6b656e20616464726573730000000000000000000000600082015250565b7f416d6f756e7473206d7573742062652067726561746572207468616e20796f7560008201527f722062616c616e63650000000000000000000000000000000000000000000000602082015250565b612eab81612b0f565b8114612eb657600080fd5b50565b612ec281612b21565b8114612ecd57600080fd5b50565b612ed981612b4d565b8114612ee457600080fd5b5056fe4d79546f6b656e285f66726f6d292e7472616e7366657246726f6d286d73672e73656e6465722c20616464726573732874686973292c20616d6f756e74496e29206661696c65644d79546f6b656e285f746f292e7472616e7366657246726f6d28616464726573732874686973292c206d73672e73656e6465722c20616d6f756e744f757429206661696c65644d79546f6b656e285f746f292e617070726f7665286d73672e73656e6465722c20616d6f756e744f757429a2646970667358221220191594e4d190ad19b77bfbe88345871d44c6dfb4fd972e9c7864850a37969bfc64736f6c6343000807003360806040523480156200001157600080fd5b5060405162001c0b38038062001c0b8339818101604052810190620000379190620001a3565b818181600390805190602001906200005192919062000075565b5080600490805190602001906200006a92919062000075565b5050505050620003ac565b8280546200008390620002bd565b90600052602060002090601f016020900481019282620000a75760008555620000f3565b82601f10620000c257805160ff1916838001178555620000f3565b82800160010185558215620000f3579182015b82811115620000f2578251825591602001919060010190620000d5565b5b50905062000102919062000106565b5090565b5b808211156200012157600081600090555060010162000107565b5090565b60006200013c620001368462000251565b62000228565b9050828152602081018484840111156200015b576200015a6200038c565b5b6200016884828562000287565b509392505050565b600082601f83011262000188576200018762000387565b5b81516200019a84826020860162000125565b91505092915050565b60008060408385031215620001bd57620001bc62000396565b5b600083015167ffffffffffffffff811115620001de57620001dd62000391565b5b620001ec8582860162000170565b925050602083015167ffffffffffffffff81111562000210576200020f62000391565b5b6200021e8582860162000170565b9150509250929050565b60006200023462000247565b9050620002428282620002f3565b919050565b6000604051905090565b600067ffffffffffffffff8211156200026f576200026e62000358565b5b6200027a826200039b565b9050602081019050919050565b60005b83811015620002a75780820151818401526020810190506200028a565b83811115620002b7576000848401525b50505050565b60006002820490506001821680620002d657607f821691505b60208210811415620002ed57620002ec62000329565b5b50919050565b620002fe826200039b565b810181811067ffffffffffffffff8211171562000320576200031f62000358565b5b80604052505050565b7f4e487b7100000000000000000000000000000000000000000000000000000000600052602260045260246000fd5b7f4e487b7100000000000000000000000000000000000000000000000000000000600052604160045260246000fd5b600080fd5b600080fd5b600080fd5b600080fd5b6000601f19601f8301169050919050565b61184f80620003bc6000396000f3fe608060405234801561001057600080fd5b50600436106100ea5760003560e01c8063665a11ca1161008c5780639dc29fac116100665780639dc29fac14610275578063a457c2d7146102a5578063a9059cbb146102d5578063dd62ed3e14610305576100ea565b8063665a11ca1461020957806370a082311461022757806395d89b4114610257576100ea565b806323b872dd116100c857806323b872dd1461015b578063313ce5671461018b57806339509351146101a957806340c10f19146101d9576100ea565b806306fdde03146100ef578063095ea7b31461010d57806318160ddd1461013d575b600080fd5b6100f7610335565b60405161010491906111e9565b60405180910390f35b61012760048036038101906101229190610fa0565b6103c7565b60405161013491906111ce565b60405180910390f35b6101456103ea565b604051610152919061134b565b60405180910390f35b61017560048036038101906101709190610f4d565b6103f4565b60405161018291906111ce565b60405180910390f35b610193610423565b6040516101a09190611366565b60405180910390f35b6101c360048036038101906101be9190610fa0565b61042c565b6040516101d091906111ce565b60405180910390f35b6101f360048036038101906101ee9190610fa0565b610463565b60405161020091906111ce565b60405180910390f35b610211610479565b60405161021e91906111b3565b60405180910390f35b610241600480360381019061023c9190610ee0565b61049f565b60405161024e919061134b565b60405180910390f35b61025f6104e7565b60405161026c91906111e9565b60405180910390f35b61028f600480360381019061028a9190610fa0565b610579565b60405161029c91906111ce565b60405180910390f35b6102bf60048036038101906102ba9190610fa0565b61058f565b6040516102cc91906111ce565b60405180910390f35b6102ef60048036038101906102ea9190610fa0565b610606565b6040516102fc91906111ce565b60405180910390f35b61031f600480360381019061031a9190610f0d565b610629565b60405161032c919061134b565b60405180910390f35b6060600380546103449061147b565b80601f01602080910402602001604051908101604052809291908181526020018280546103709061147b565b80156103bd5780601f10610392576101008083540402835291602001916103bd565b820191906000526020600020905b8154815290600101906020018083116103a057829003601f168201915b5050505050905090565b6000806103d26106b0565b90506103df8185856106b8565b600191505092915050565b6000600254905090565b6000806103ff6106b0565b905061040c858285610883565b61041785858561090f565b60019150509392505050565b60006012905090565b6000806104376106b0565b90506104588185856104498589610629565b610453919061139d565b6106b8565b600191505092915050565b600061046f8383610b87565b6001905092915050565b600560009054906101000a900473ffffffffffffffffffffffffffffffffffffffff1681565b60008060008373ffffffffffffffffffffffffffffffffffffffff1673ffffffffffffffffffffffffffffffffffffffff168152602001908152602001600020549050919050565b6060600480546104f69061147b565b80601f01602080910402602001604051908101604052809291908181526020018280546105229061147b565b801561056f5780601f106105445761010080835404028352916020019161056f565b820191906000526020600020905b81548152906001019060200180831161055257829003601f168201915b5050505050905090565b60006105858383610cde565b6001905092915050565b60008061059a6106b0565b905060006105a88286610629565b9050838110156105ed576040517f08c379a00000000000000000000000000000000000000000000000000000000081526004016105e49061130b565b60405180910390fd5b6105fa82868684036106b8565b60019250505092915050565b6000806106116106b0565b905061061e81858561090f565b600191505092915050565b6000600160008473ffffffffffffffffffffffffffffffffffffffff1673ffffffffffffffffffffffffffffffffffffffff16815260200190815260200160002060008373ffffffffffffffffffffffffffffffffffffffff1673ffffffffffffffffffffffffffffffffffffffff16815260200190815260200160002054905092915050565b600033905090565b600073ffffffffffffffffffffffffffffffffffffffff168373ffffffffffffffffffffffffffffffffffffffff161415610728576040517f08c379a000000000000000000000000000000000000000000000000000000000815260040161071f906112eb565b60405180910390fd5b600073ffffffffffffffffffffffffffffffffffffffff168273ffffffffffffffffffffffffffffffffffffffff161415610798576040517f08c379a000000000000000000000000000000000000000000000000000000000815260040161078f9061124b565b60405180910390fd5b80600160008573ffffffffffffffffffffffffffffffffffffffff1673ffffffffffffffffffffffffffffffffffffffff16815260200190815260200160002060008473ffffffffffffffffffffffffffffffffffffffff1673ffffffffffffffffffffffffffffffffffffffff168152602001908152602001600020819055508173ffffffffffffffffffffffffffffffffffffffff168373ffffffffffffffffffffffffffffffffffffffff167f8c5be1e5ebec7d5bd14f71427d1e84f3dd0314c0f7b2291e5b200ac8c7c3b92583604051610876919061134b565b60405180910390a3505050565b600061088f8484610629565b90507fffffffffffffffffffffffffffffffffffffffffffffffffffffffffffffffff811461090957818110156108fb576040517f08c379a00000000000000000000000000000000000000000000000000000000081526004016108f29061126b565b60405180910390fd5b61090884848484036106b8565b5b50505050565b600073ffffffffffffffffffffffffffffffffffffffff168373ffffffffffffffffffffffffffffffffffffffff16141561097f576040517f08c379a0000000000000000000000000000000000000000000000000000000008152600401610976906112cb565b60405180910390fd5b600073ffffffffffffffffffffffffffffffffffffffff168273ffffffffffffffffffffffffffffffffffffffff1614156109ef576040517f08c379a00000000000000000000000000000000000000000000000000000000081526004016109e69061120b565b60405180910390fd5b6109fa838383610eac565b60008060008573ffffffffffffffffffffffffffffffffffffffff1673ffffffffffffffffffffffffffffffffffffffff16815260200190815260200160002054905081811015610a80576040517f08c379a0000000000000000000000000000000000000000000000000000000008152600401610a779061128b565b60405180910390fd5b8181036000808673ffffffffffffffffffffffffffffffffffffffff1673ffffffffffffffffffffffffffffffffffffffff16815260200190815260200160002081905550816000808573ffffffffffffffffffffffffffffffffffffffff1673ffffffffffffffffffffffffffffffffffffffff168152602001908152602001600020600082825401925050819055508273ffffffffffffffffffffffffffffffffffffffff168473ffffffffffffffffffffffffffffffffffffffff167fddf252ad1be2c89b69c2b068fc378daa952ba7f163c4a11628f55a4df523b3ef84604051610b6e919061134b565b60405180910390a3610b81848484610eb1565b50505050565b600073ffffffffffffffffffffffffffffffffffffffff168273ffffffffffffffffffffffffffffffffffffffff161415610bf7576040517f08c379a0000000000000000000000000000000000000000000000000000000008152600401610bee9061132b565b60405180910390fd5b610c0360008383610eac565b8060026000828254610c15919061139d565b92505081905550806000808473ffffffffffffffffffffffffffffffffffffffff1673ffffffffffffffffffffffffffffffffffffffff168152602001908152602001600020600082825401925050819055508173ffffffffffffffffffffffffffffffffffffffff16600073ffffffffffffffffffffffffffffffffffffffff167fddf252ad1be2c89b69c2b068fc378daa952ba7f163c4a11628f55a4df523b3ef83604051610cc6919061134b565b60405180910390a3610cda60008383610eb1565b5050565b600073ffffffffffffffffffffffffffffffffffffffff168273ffffffffffffffffffffffffffffffffffffffff161415610d4e576040517f08c379a0000000000000000000000000000000000000000000000000000000008152600401610d45906112ab565b60405180910390fd5b610d5a82600083610eac565b60008060008473ffffffffffffffffffffffffffffffffffffffff1673ffffffffffffffffffffffffffffffffffffffff16815260200190815260200160002054905081811015610de0576040517f08c379a0000000000000000000000000000000000000000000000000000000008152600401610dd79061122b565b60405180910390fd5b8181036000808573ffffffffffffffffffffffffffffffffffffffff1673ffffffffffffffffffffffffffffffffffffffff1681526020019081526020016000208190555081600260008282540392505081905550600073ffffffffffffffffffffffffffffffffffffffff168373ffffffffffffffffffffffffffffffffffffffff167fddf252ad1be2c89b69c2b068fc378daa952ba7f163c4a11628f55a4df523b3ef84604051610e93919061134b565b60405180910390a3610ea783600084610eb1565b505050565b505050565b505050565b600081359050610ec5816117eb565b92915050565b600081359050610eda81611802565b92915050565b600060208284031215610ef657610ef561150b565b5b6000610f0484828501610eb6565b91505092915050565b60008060408385031215610f2457610f2361150b565b5b6000610f3285828601610eb6565b9250506020610f4385828601610eb6565b9150509250929050565b600080600060608486031215610f6657610f6561150b565b5b6000610f7486828701610eb6565b9350506020610f8586828701610eb6565b9250506040610f9686828701610ecb565b9150509250925092565b60008060408385031215610fb757610fb661150b565b5b6000610fc585828601610eb6565b9250506020610fd685828601610ecb565b9150509250929050565b610fe9816113f3565b82525050565b610ff881611405565b82525050565b600061100982611381565b611013818561138c565b9350611023818560208601611448565b61102c81611510565b840191505092915050565b600061104460238361138c565b915061104f82611521565b604082019050919050565b600061106760228361138c565b915061107282611570565b604082019050919050565b600061108a60228361138c565b9150611095826115bf565b604082019050919050565b60006110ad601d8361138c565b91506110b88261160e565b602082019050919050565b60006110d060268361138c565b91506110db82611637565b604082019050919050565b60006110f360218361138c565b91506110fe82611686565b604082019050919050565b600061111660258361138c565b9150611121826116d5565b604082019050919050565b600061113960248361138c565b915061114482611724565b604082019050919050565b600061115c60258361138c565b915061116782611773565b604082019050919050565b600061117f601f8361138c565b915061118a826117c2565b602082019050919050565b61119e81611431565b82525050565b6111ad8161143b565b82525050565b60006020820190506111c86000830184610fe0565b92915050565b60006020820190506111e36000830184610fef565b92915050565b600060208201905081810360008301526112038184610ffe565b905092915050565b6000602082019050818103600083015261122481611037565b9050919050565b600060208201905081810360008301526112448161105a565b9050919050565b600060208201905081810360008301526112648161107d565b9050919050565b60006020820190508181036000830152611284816110a0565b9050919050565b600060208201905081810360008301526112a4816110c3565b9050919050565b600060208201905081810360008301526112c4816110e6565b9050919050565b600060208201905081810360008301526112e481611109565b9050919050565b600060208201905081810360008301526113048161112c565b9050919050565b600060208201905081810360008301526113248161114f565b9050919050565b6000602082019050818103600083015261134481611172565b9050919050565b60006020820190506113606000830184611195565b92915050565b600060208201905061137b60008301846111a4565b92915050565b600081519050919050565b600082825260208201905092915050565b60006113a882611431565b91506113b383611431565b9250827fffffffffffffffffffffffffffffffffffffffffffffffffffffffffffffffff038211156113e8576113e76114ad565b5b828201905092915050565b60006113fe82611411565b9050919050565b60008115159050919050565b600073ffffffffffffffffffffffffffffffffffffffff82169050919050565b6000819050919050565b600060ff82169050919050565b60005b8381101561146657808201518184015260208101905061144b565b83811115611475576000848401525b50505050565b6000600282049050600182168061149357607f821691505b602082108114156114a7576114a66114dc565b5b50919050565b7f4e487b7100000000000000000000000000000000000000000000000000000000600052601160045260246000fd5b7f4e487b7100000000000000000000000000000000000000000000000000000000600052602260045260246000fd5b600080fd5b6000601f19601f8301169050919050565b7f45524332303a207472616e7366657220746f20746865207a65726f206164647260008201527f6573730000000000000000000000000000000000000000000000000000000000602082015250565b7f45524332303a206275726e20616d6f756e7420657863656564732062616c616e60008201527f6365000000000000000000000000000000000000000000000000000000000000602082015250565b7f45524332303a20617070726f766520746f20746865207a65726f20616464726560008201527f7373000000000000000000000000000000000000000000000000000000000000602082015250565b7f45524332303a20696e73756666696369656e7420616c6c6f77616e6365000000600082015250565b7f45524332303a207472616e7366657220616d6f756e742065786365656473206260008201527f616c616e63650000000000000000000000000000000000000000000000000000602082015250565b7f45524332303a206275726e2066726f6d20746865207a65726f2061646472657360008201527f7300000000000000000000000000000000000000000000000000000000000000602082015250565b7f45524332303a207472616e736665722066726f6d20746865207a65726f20616460008201527f6472657373000000000000000000000000000000000000000000000000000000602082015250565b7f45524332303a20617070726f76652066726f6d20746865207a65726f2061646460008201527f7265737300000000000000000000000000000000000000000000000000000000602082015250565b7f45524332303a2064656372656173656420616c6c6f77616e63652062656c6f7760008201527f207a65726f000000000000000000000000000000000000000000000000000000602082015250565b7f45524332303a206d696e7420746f20746865207a65726f206164647265737300600082015250565b6117f4816113f3565b81146117ff57600080fd5b50565b61180b81611431565b811461181657600080fd5b5056fea2646970667358221220d0e72f1661014f4d8357d8bbb4a7a09bbbec22fa62328e6c9f99fea981e9752764736f6c63430008070033",
  "linkReferences": {},
  "deployedLinkReferences": {}
}