{
  "_format": "hh-sol-artifact-1",
  "contractName": "CPAMM",
  "sourceName": "contracts/CPAMM.sol",
  "abi": [
    {
      "inputs": [
        {
          "internalType": "address",
          "name": "_token1",
          "type": "address"
        },
        {
          "internalType": "address",
          "name": "_token2",
          "type": "address"
        }
      ],
      "stateMutability": "nonpayable",
      "type": "constructor"
    },
    {
      "anonymous": false,
      "inputs": [
        {
          "indexed": true,
          "internalType": "address",
          "name": "sender",
          "type": "address"
        },
        {
          "indexed": false,
          "internalType": "uint256",
          "name": "amount1",
          "type": "uint256"
        },
        {
          "indexed": false,
          "internalType": "uint256",
          "name": "amount2",
          "type": "uint256"
        },
        {
          "indexed": true,
          "internalType": "address",
          "name": "to",
          "type": "address"
        }
      ],
      "name": "Burn",
      "type": "event"
    },
    {
      "anonymous": false,
      "inputs": [
        {
          "indexed": true,
          "internalType": "address",
          "name": "sender",
          "type": "address"
        },
        {
          "indexed": false,
          "internalType": "uint256",
          "name": "amount1",
          "type": "uint256"
        },
        {
          "indexed": false,
          "internalType": "uint256",
          "name": "amount2",
          "type": "uint256"
        }
      ],
      "name": "Mint",
      "type": "event"
    },
    {
      "inputs": [
        {
          "internalType": "address",
          "name": "",
          "type": "address"
        }
      ],
      "name": "LPbalanceOf",
      "outputs": [
        {
          "internalType": "uint256",
          "name": "",
          "type": "uint256"
        }
      ],
      "stateMutability": "view",
      "type": "function"
    },
    {
      "inputs": [],
      "name": "LPtokenCPAMM",
      "outputs": [
        {
          "internalType": "contract LPTokenCPAMM",
          "name": "",
          "type": "address"
        }
      ],
      "stateMutability": "view",
      "type": "function"
    },
    {
      "inputs": [],
      "name": "LPtotalSupply",
      "outputs": [
        {
          "internalType": "uint256",
          "name": "",
          "type": "uint256"
        }
      ],
      "stateMutability": "view",
      "type": "function"
    },
    {
      "inputs": [
        {
          "internalType": "uint256",
          "name": "_amount1",
          "type": "uint256"
        },
        {
          "internalType": "uint256",
          "name": "_amount2",
          "type": "uint256"
        }
      ],
      "name": "addLiquidity",
      "outputs": [],
      "stateMutability": "nonpayable",
      "type": "function"
    },
    {
      "inputs": [
        {
          "internalType": "uint256",
          "name": "amount1",
          "type": "uint256"
        },
        {
          "internalType": "uint256",
          "name": "amount2",
          "type": "uint256"
        }
      ],
      "name": "calculateLiquidity",
      "outputs": [
        {
          "internalType": "uint256",
          "name": "",
          "type": "uint256"
        }
      ],
      "stateMutability": "view",
      "type": "function"
    },
    {
      "inputs": [
        {
          "internalType": "uint256",
          "name": "liquidity",
          "type": "uint256"
        },
        {
          "internalType": "address",
          "name": "token",
          "type": "address"
        }
      ],
      "name": "calculateTokenAmount",
      "outputs": [
        {
          "internalType": "uint256",
          "name": "",
          "type": "uint256"
        }
      ],
      "stateMutability": "view",
      "type": "function"
    },
    {
      "inputs": [
        {
          "internalType": "address",
          "name": "fromToken",
          "type": "address"
        },
        {
          "internalType": "address",
          "name": "toToken",
          "type": "address"
        },
        {
          "internalType": "uint256",
          "name": "amount",
          "type": "uint256"
        }
      ],
      "name": "getExchangeRate",
      "outputs": [
        {
          "internalType": "uint256",
          "name": "",
          "type": "uint256"
        }
      ],
      "stateMutability": "view",
      "type": "function"
    },
    {
      "inputs": [],
      "name": "getLPTokenAddress",
      "outputs": [
        {
          "internalType": "address",
          "name": "",
          "type": "address"
        }
      ],
      "stateMutability": "view",
      "type": "function"
    },
    {
      "inputs": [],
      "name": "getReserves",
      "outputs": [
        {
          "internalType": "uint256",
          "name": "",
          "type": "uint256"
        },
        {
          "internalType": "uint256",
          "name": "",
          "type": "uint256"
        }
      ],
      "stateMutability": "view",
      "type": "function"
    },
    {
      "inputs": [
        {
          "internalType": "address",
          "name": "_from",
          "type": "address"
        },
        {
          "internalType": "address",
          "name": "_to",
          "type": "address"
        },
        {
          "internalType": "uint256",
          "name": "_amount",
          "type": "uint256"
        }
      ],
      "name": "getReturn",
      "outputs": [
        {
          "internalType": "uint256",
          "name": "",
          "type": "uint256"
        }
      ],
      "stateMutability": "view",
      "type": "function"
    },
    {
      "inputs": [],
      "name": "product",
      "outputs": [
        {
          "internalType": "uint256",
          "name": "",
          "type": "uint256"
        }
      ],
      "stateMutability": "view",
      "type": "function"
    },
    {
      "inputs": [
        {
          "internalType": "uint256",
          "name": "amount",
          "type": "uint256"
        }
      ],
      "name": "removeLiquidity",
      "outputs": [],
      "stateMutability": "nonpayable",
      "type": "function"
    },
    {
      "inputs": [],
      "name": "reserve1",
      "outputs": [
        {
          "internalType": "uint256",
          "name": "",
          "type": "uint256"
        }
      ],
      "stateMutability": "view",
      "type": "function"
    },
    {
      "inputs": [],
      "name": "reserve2",
      "outputs": [
        {
          "internalType": "uint256",
          "name": "",
          "type": "uint256"
        }
      ],
      "stateMutability": "view",
      "type": "function"
    },
    {
      "inputs": [
        {
          "internalType": "uint256",
          "name": "y",
          "type": "uint256"
        }
      ],
      "name": "sqrt",
      "outputs": [
        {
          "internalType": "uint256",
          "name": "",
          "type": "uint256"
        }
      ],
      "stateMutability": "pure",
      "type": "function"
    },
    {
      "inputs": [
        {
          "internalType": "address",
          "name": "_from",
          "type": "address"
        },
        {
          "internalType": "address",
          "name": "_to",
          "type": "address"
        },
        {
          "internalType": "uint256",
          "name": "_fromAmount",
          "type": "uint256"
        },
        {
          "internalType": "uint256",
          "name": "_toAmount",
          "type": "uint256"
        }
      ],
      "name": "swap",
      "outputs": [],
      "stateMutability": "nonpayable",
      "type": "function"
    },
    {
      "inputs": [],
      "name": "token1",
      "outputs": [
        {
          "internalType": "address",
          "name": "",
          "type": "address"
        }
      ],
      "stateMutability": "view",
      "type": "function"
    },
    {
      "inputs": [],
      "name": "token2",
      "outputs": [
        {
          "internalType": "address",
          "name": "",
          "type": "address"
        }
      ],
      "stateMutability": "view",
      "type": "function"
    }
  ],
  "bytecode": "0x60806040523480156200001157600080fd5b5060405162004b5438038062004b5483398181016040528101906200003791906200015c565b816000806101000a81548173ffffffffffffffffffffffffffffffffffffffff021916908373ffffffffffffffffffffffffffffffffffffffff16021790555080600160006101000a81548173ffffffffffffffffffffffffffffffffffffffff021916908373ffffffffffffffffffffffffffffffffffffffff160217905550604051620000c69062000137565b620000d190620001f1565b604051809103906000f080158015620000ee573d6000803e3d6000fd5b50600260006101000a81548173ffffffffffffffffffffffffffffffffffffffff021916908373ffffffffffffffffffffffffffffffffffffffff1602179055505050620002de565b611c0b8062002f4983390190565b6000815190506200015681620002c4565b92915050565b600080604083850312156200017657620001756200026d565b5b6000620001868582860162000145565b9250506020620001998582860162000145565b9150509250929050565b6000620001b2600a8362000228565b9150620001bf8262000272565b602082019050919050565b6000620001d960048362000228565b9150620001e6826200029b565b602082019050919050565b600060408201905081810360008301526200020c81620001a3565b905081810360208301526200022181620001ca565b9050919050565b600082825260208201905092915050565b600062000246826200024d565b9050919050565b600073ffffffffffffffffffffffffffffffffffffffff82169050919050565b600080fd5b7f4c50435020546f6b656e00000000000000000000000000000000000000000000600082015250565b7f4c50435000000000000000000000000000000000000000000000000000000000600082015250565b620002cf8162000239565b8114620002db57600080fd5b50565b612c5b80620002ee6000396000f3fe608060405234801561001057600080fd5b50600436106101165760003560e01c8063926aa5f1116100a2578063c9e57aa611610071578063c9e57aa6146102e6578063d21220a714610304578063e371817e14610322578063e471cfb814610352578063fe0291561461038257610116565b8063926aa5f1146102605780639c8f9f23146102905780639cd441da146102ac578063bf9ce952146102c857610116565b80635c0b9a2b116100e95780635c0b9a2b146101a6578063677342ce146101c45780636ac98770146101f45780636b441d8a1461021257806383933cc91461024257610116565b80630902f1ac1461011b5780631e1401f81461013a57806325be124e1461016a5780635a76f25e14610188575b600080fd5b61012361039e565b6040516101319291906126e9565b60405180910390f35b610154600480360381019061014f9190612151565b6103af565b60405161016191906126ce565b60405180910390f35b610172610607565b60405161017f91906124d6565b60405180910390f35b61019061062d565b60405161019d91906126ce565b60405180910390f35b6101ae610633565b6040516101bb91906126ce565b60405180910390f35b6101de60048036038101906101d99190612238565b610639565b6040516101eb91906126ce565b60405180910390f35b6101fc61070d565b6040516102099190612551565b60405180910390f35b61022c60048036038101906102279190612151565b610733565b60405161023991906126ce565b60405180910390f35b61024a610951565b60405161025791906126ce565b60405180910390f35b61027a600480360381019061027591906122d2565b610957565b60405161028791906126ce565b60405180910390f35b6102aa60048036038101906102a59190612238565b610d38565b005b6102c660048036038101906102c191906122d2565b611184565b005b6102d06118e5565b6040516102dd91906126ce565b60405180910390f35b6102ee6118eb565b6040516102fb91906124d6565b60405180910390f35b61030c611915565b60405161031991906124d6565b60405180910390f35b61033c60048036038101906103379190612292565b611939565b60405161034991906126ce565b60405180910390f35b61036c60048036038101906103679190612124565b611b8f565b60405161037991906126ce565b60405180910390f35b61039c600480360381019061039791906121a4565b611ba7565b005b600080600454600554915091509091565b60008273ffffffffffffffffffffffffffffffffffffffff168473ffffffffffffffffffffffffffffffffffffffff161415610420576040517f08c379a00000000000000000000000000000000000000000000000000000000081526004016104179061258e565b60405180910390fd5b60008060008054906101000a900473ffffffffffffffffffffffffffffffffffffffff1673ffffffffffffffffffffffffffffffffffffffff168673ffffffffffffffffffffffffffffffffffffffff161480156104cb5750600160009054906101000a900473ffffffffffffffffffffffffffffffffffffffff1673ffffffffffffffffffffffffffffffffffffffff168573ffffffffffffffffffffffffffffffffffffffff16145b156104df57600454915060055490506105d7565b600160009054906101000a900473ffffffffffffffffffffffffffffffffffffffff1673ffffffffffffffffffffffffffffffffffffffff168673ffffffffffffffffffffffffffffffffffffffff16148015610587575060008054906101000a900473ffffffffffffffffffffffffffffffffffffffff1673ffffffffffffffffffffffffffffffffffffffff168573ffffffffffffffffffffffffffffffffffffffff16145b1561059b57600554915060045490506105d6565b6040517f08c379a00000000000000000000000000000000000000000000000000000000081526004016105cd906125ae565b60405180910390fd5b5b6000816105ee86856105e9919061272e565b611f8a565b6105f8919061280f565b90508093505050509392505050565b600160009054906101000a900473ffffffffffffffffffffffffffffffffffffffff1681565b60045481565b60055481565b60008061067d600261066f6001610661670de0b6b3a764000088611fb690919063ffffffff16565b611fcc90919063ffffffff16565b611fe290919063ffffffff16565b9050600061069c670de0b6b3a764000085611fb690919063ffffffff16565b90505b80821015610703578190506106fc60026106ee846106e0866106d2670de0b6b3a76400008b611fb690919063ffffffff16565b611fe290919063ffffffff16565b611fcc90919063ffffffff16565b611fe290919063ffffffff16565b915061069f565b8092505050919050565b600260009054906101000a900473ffffffffffffffffffffffffffffffffffffffff1681565b60008060008060009054906101000a900473ffffffffffffffffffffffffffffffffffffffff1673ffffffffffffffffffffffffffffffffffffffff168673ffffffffffffffffffffffffffffffffffffffff161480156107e15750600160009054906101000a900473ffffffffffffffffffffffffffffffffffffffff1673ffffffffffffffffffffffffffffffffffffffff168573ffffffffffffffffffffffffffffffffffffffff16145b156107f557600454915060055490506108ed565b600160009054906101000a900473ffffffffffffffffffffffffffffffffffffffff1673ffffffffffffffffffffffffffffffffffffffff168673ffffffffffffffffffffffffffffffffffffffff1614801561089d575060008054906101000a900473ffffffffffffffffffffffffffffffffffffffff1673ffffffffffffffffffffffffffffffffffffffff168573ffffffffffffffffffffffffffffffffffffffff16145b156108b157600554915060045490506108ec565b6040517f08c379a00000000000000000000000000000000000000000000000000000000081526004016108e3906125ae565b60405180910390fd5b5b60006109426109336109088786611fcc90919063ffffffff16565b610925670de0b6b3a7640000600654611fb690919063ffffffff16565b611fe290919063ffffffff16565b83611ff890919063ffffffff16565b90508093505050509392505050565b60035481565b60008060008054906101000a900473ffffffffffffffffffffffffffffffffffffffff1673ffffffffffffffffffffffffffffffffffffffff166370a08231306040518263ffffffff1660e01b81526004016109b391906124d6565b60206040518083038186803b1580156109cb57600080fd5b505afa1580156109df573d6000803e3d6000fd5b505050506040513d601f19601f82011682018060405250810190610a039190612265565b90506000600160009054906101000a900473ffffffffffffffffffffffffffffffffffffffff1673ffffffffffffffffffffffffffffffffffffffff166370a08231306040518263ffffffff1660e01b8152600401610a6291906124d6565b60206040518083038186803b158015610a7a57600080fd5b505afa158015610a8e573d6000803e3d6000fd5b505050506040513d601f19601f82011682018060405250810190610ab29190612265565b9050600080600260009054906101000a900473ffffffffffffffffffffffffffffffffffffffff1673ffffffffffffffffffffffffffffffffffffffff166318160ddd6040518163ffffffff1660e01b815260040160206040518083038186803b158015610b1f57600080fd5b505afa158015610b33573d6000803e3d6000fd5b505050506040513d601f19601f82011682018060405250810190610b579190612265565b1415610b9957610b92610b8d670de0b6b3a7640000610b7f888a611fb690919063ffffffff16565b611fe290919063ffffffff16565b610639565b9050610d2c565b6000610bc883610bba670de0b6b3a764000089611fb690919063ffffffff16565b611fe290919063ffffffff16565b610bf585610be7670de0b6b3a76400008b611fb690919063ffffffff16565b611fe290919063ffffffff16565b10610c2c57610c2783610c19670de0b6b3a764000089611fb690919063ffffffff16565b611fe290919063ffffffff16565b610c5a565b610c5984610c4b670de0b6b3a76400008a611fb690919063ffffffff16565b611fe290919063ffffffff16565b5b9050610d28670de0b6b3a7640000610d1a600260009054906101000a900473ffffffffffffffffffffffffffffffffffffffff1673ffffffffffffffffffffffffffffffffffffffff166318160ddd6040518163ffffffff1660e01b815260040160206040518083038186803b158015610cd357600080fd5b505afa158015610ce7573d6000803e3d6000fd5b505050506040513d601f19601f82011682018060405250810190610d0b9190612265565b84611fb690919063ffffffff16565b611fe290919063ffffffff16565b9150505b80935050505092915050565b6000600260009054906101000a900473ffffffffffffffffffffffffffffffffffffffff1673ffffffffffffffffffffffffffffffffffffffff166370a08231336040518263ffffffff1660e01b8152600401610d9591906124d6565b60206040518083038186803b158015610dad57600080fd5b505afa158015610dc1573d6000803e3d6000fd5b505050506040513d601f19601f82011682018060405250810190610de59190612265565b905081811015610e2a576040517f08c379a0000000000000000000000000000000000000000000000000000000008152600401610e21906125ee565b60405180910390fd5b6000610e568360008054906101000a900473ffffffffffffffffffffffffffffffffffffffff16611939565b90506000610e8684600160009054906101000a900473ffffffffffffffffffffffffffffffffffffffff16611939565b9050600082118015610e985750600081115b610ed7576040517f08c379a0000000000000000000000000000000000000000000000000000000008152600401610ece9061262e565b60405180910390fd5b600260009054906101000a900473ffffffffffffffffffffffffffffffffffffffff1673ffffffffffffffffffffffffffffffffffffffff16639dc29fac33866040518363ffffffff1660e01b8152600401610f34929190612528565b602060405180830381600087803b158015610f4e57600080fd5b505af1158015610f62573d6000803e3d6000fd5b505050506040513d601f19601f82011682018060405250810190610f86919061220b565b5060008054906101000a900473ffffffffffffffffffffffffffffffffffffffff1673ffffffffffffffffffffffffffffffffffffffff1663a9059cbb33846040518363ffffffff1660e01b8152600401610fe2929190612528565b602060405180830381600087803b158015610ffc57600080fd5b505af1158015611010573d6000803e3d6000fd5b505050506040513d601f19601f82011682018060405250810190611034919061220b565b50600160009054906101000a900473ffffffffffffffffffffffffffffffffffffffff1673ffffffffffffffffffffffffffffffffffffffff1663a9059cbb33836040518363ffffffff1660e01b8152600401611092929190612528565b602060405180830381600087803b1580156110ac57600080fd5b505af11580156110c0573d6000803e3d6000fd5b505050506040513d601f19601f820116820180604052508101906110e4919061220b565b5081600460008282546110f7919061280f565b925050819055508060056000828254611110919061280f565b925050819055503373ffffffffffffffffffffffffffffffffffffffff163373ffffffffffffffffffffffffffffffffffffffff167fdccd412f0b1252819cb1fd330b93224ca42612892bb3f4f789976e6d8193649684846040516111769291906126e9565b60405180910390a350505050565b60008210158015611196575060008110155b6111d5576040517f08c379a00000000000000000000000000000000000000000000000000000000081526004016111cc9061266e565b60405180910390fd5b60008054906101000a900473ffffffffffffffffffffffffffffffffffffffff1673ffffffffffffffffffffffffffffffffffffffff166370a08231336040518263ffffffff1660e01b815260040161122e91906124d6565b60206040518083038186803b15801561124657600080fd5b505afa15801561125a573d6000803e3d6000fd5b505050506040513d601f19601f8201168201806040525081019061127e9190612265565b82111580156113375750600160009054906101000a900473ffffffffffffffffffffffffffffffffffffffff1673ffffffffffffffffffffffffffffffffffffffff166370a08231336040518263ffffffff1660e01b81526004016112e391906124d6565b60206040518083038186803b1580156112fb57600080fd5b505afa15801561130f573d6000803e3d6000fd5b505050506040513d601f19601f820116820180604052508101906113339190612265565b8111155b611376576040517f08c379a000000000000000000000000000000000000000000000000000000000815260040161136d906126ae565b60405180910390fd5b600060045414801561138a57506000600554145b156115495760008054906101000a900473ffffffffffffffffffffffffffffffffffffffff1673ffffffffffffffffffffffffffffffffffffffff166323b872dd3330856040518463ffffffff1660e01b81526004016113ec939291906124f1565b602060405180830381600087803b15801561140657600080fd5b505af115801561141a573d6000803e3d6000fd5b505050506040513d601f19601f8201168201806040525081019061143e919061220b565b80156114f75750600160009054906101000a900473ffffffffffffffffffffffffffffffffffffffff1673ffffffffffffffffffffffffffffffffffffffff166323b872dd3330846040518463ffffffff1660e01b81526004016114a4939291906124f1565b602060405180830381600087803b1580156114be57600080fd5b505af11580156114d2573d6000803e3d6000fd5b505050506040513d601f19601f820116820180604052508101906114f6919061220b565b5b611536576040517f08c379a000000000000000000000000000000000000000000000000000000000815260040161152d906125ce565b60405180910390fd5b8160048190555080600581905550611723565b60008054906101000a900473ffffffffffffffffffffffffffffffffffffffff1673ffffffffffffffffffffffffffffffffffffffff166323b872dd3330856040518463ffffffff1660e01b81526004016115a6939291906124f1565b602060405180830381600087803b1580156115c057600080fd5b505af11580156115d4573d6000803e3d6000fd5b505050506040513d601f19601f820116820180604052508101906115f8919061220b565b80156116b15750600160009054906101000a900473ffffffffffffffffffffffffffffffffffffffff1673ffffffffffffffffffffffffffffffffffffffff166323b872dd3330846040518463ffffffff1660e01b815260040161165e939291906124f1565b602060405180830381600087803b15801561167857600080fd5b505af115801561168c573d6000803e3d6000fd5b505050506040513d601f19601f820116820180604052508101906116b0919061220b565b5b6116f0576040517f08c379a00000000000000000000000000000000000000000000000000000000081526004016116e7906125ce565b60405180910390fd5b8160046000828254611702919061272e565b92505081905550806005600082825461171b919061272e565b925050819055505b600061172f8383610957565b905060008111611774576040517f08c379a000000000000000000000000000000000000000000000000000000000815260040161176b9061264e565b60405180910390fd5b600260009054906101000a900473ffffffffffffffffffffffffffffffffffffffff1673ffffffffffffffffffffffffffffffffffffffff166340c10f1933836040518363ffffffff1660e01b81526004016117d1929190612528565b602060405180830381600087803b1580156117eb57600080fd5b505af11580156117ff573d6000803e3d6000fd5b505050506040513d601f19601f82011682018060405250810190611823919061220b565b611862576040517f08c379a00000000000000000000000000000000000000000000000000000000081526004016118599061260e565b60405180910390fd5b3373ffffffffffffffffffffffffffffffffffffffff167f4c209b5fc8ad50758f13e2e1088ba56a560dff690a1c6fef26394f4c03821c4f84846040516118aa9291906126e9565b60405180910390a26118da670de0b6b3a76400006118cc600454600554611fb6565b611fe290919063ffffffff16565b600681905550505050565b60065481565b6000600260009054906101000a900473ffffffffffffffffffffffffffffffffffffffff16905090565b60008054906101000a900473ffffffffffffffffffffffffffffffffffffffff1681565b60008060009054906101000a900473ffffffffffffffffffffffffffffffffffffffff1673ffffffffffffffffffffffffffffffffffffffff168273ffffffffffffffffffffffffffffffffffffffff1614806119e35750600160009054906101000a900473ffffffffffffffffffffffffffffffffffffffff1673ffffffffffffffffffffffffffffffffffffffff168273ffffffffffffffffffffffffffffffffffffffff16145b611a22576040517f08c379a0000000000000000000000000000000000000000000000000000000008152600401611a199061268e565b60405180910390fd5b6000831415611a345760009050611b89565b60008273ffffffffffffffffffffffffffffffffffffffff166370a08231306040518263ffffffff1660e01b8152600401611a6f91906124d6565b60206040518083038186803b158015611a8757600080fd5b505afa158015611a9b573d6000803e3d6000fd5b505050506040513d601f19601f82011682018060405250810190611abf9190612265565b9050611b85600260009054906101000a900473ffffffffffffffffffffffffffffffffffffffff1673ffffffffffffffffffffffffffffffffffffffff166318160ddd6040518163ffffffff1660e01b815260040160206040518083038186803b158015611b2c57600080fd5b505afa158015611b40573d6000803e3d6000fd5b505050506040513d601f19601f82011682018060405250810190611b649190612265565b611b778387611fb690919063ffffffff16565b611fe290919063ffffffff16565b9150505b92915050565b60076020528060005260406000206000915090505481565b8273ffffffffffffffffffffffffffffffffffffffff168473ffffffffffffffffffffffffffffffffffffffff161415611c16576040517f08c379a0000000000000000000000000000000000000000000000000000000008152600401611c0d9061258e565b60405180910390fd5b600082118015611c265750600081115b611c65576040517f08c379a0000000000000000000000000000000000000000000000000000000008152600401611c5c9061266e565b60405180910390fd5b600080839150829050611c8f6040518060600160405280602b8152602001612bfb602b913961200e565b8573ffffffffffffffffffffffffffffffffffffffff166323b872dd3330856040518463ffffffff1660e01b8152600401611ccc939291906124f1565b602060405180830381600087803b158015611ce657600080fd5b505af1158015611cfa573d6000803e3d6000fd5b505050506040513d601f19601f82011682018060405250810190611d1e919061220b565b611d5d576040517f08c379a0000000000000000000000000000000000000000000000000000000008152600401611d54906125ce565b60405180910390fd5b611d7e604051806080016040528060478152602001612b6e6047913961200e565b8473ffffffffffffffffffffffffffffffffffffffff1663a9059cbb33836040518363ffffffff1660e01b8152600401611db9929190612528565b602060405180830381600087803b158015611dd357600080fd5b505af1158015611de7573d6000803e3d6000fd5b505050506040513d601f19601f82011682018060405250810190611e0b919061220b565b611e4a576040517f08c379a0000000000000000000000000000000000000000000000000000000008152600401611e41906125ce565b60405180910390fd5b611e6b604051806080016040528060468152602001612bb56046913961200e565b60008054906101000a900473ffffffffffffffffffffffffffffffffffffffff1673ffffffffffffffffffffffffffffffffffffffff168673ffffffffffffffffffffffffffffffffffffffff16148015611f135750600160009054906101000a900473ffffffffffffffffffffffffffffffffffffffff1673ffffffffffffffffffffffffffffffffffffffff168573ffffffffffffffffffffffffffffffffffffffff16145b15611f4f578160046000828254611f2a919061272e565b925050819055508060056000828254611f43919061280f565b92505081905550611f82565b8160056000828254611f61919061272e565b925050819055508060046000828254611f7a919061280f565b925050819055505b505050505050565b6000600182611f99919061272e565b8283611fa591906127b5565b611faf9190612784565b9050919050565b60008183611fc491906127b5565b905092915050565b60008183611fda919061272e565b905092915050565b60008183611ff09190612784565b905092915050565b60008183612006919061280f565b905092915050565b6120a481604051602401612022919061256c565b6040516020818303038152906040527f41304fac000000000000000000000000000000000000000000000000000000007bffffffffffffffffffffffffffffffffffffffffffffffffffffffff19166020820180517bffffffffffffffffffffffffffffffffffffffffffffffffffffffff83818316178352505050506120a7565b50565b60008151905060006a636f6e736f6c652e6c6f679050602083016000808483855afa5050505050565b6000813590506120df81612b28565b92915050565b6000815190506120f481612b3f565b92915050565b60008135905061210981612b56565b92915050565b60008151905061211e81612b56565b92915050565b60006020828403121561213a57612139612952565b5b6000612148848285016120d0565b91505092915050565b60008060006060848603121561216a57612169612952565b5b6000612178868287016120d0565b9350506020612189868287016120d0565b925050604061219a868287016120fa565b9150509250925092565b600080600080608085870312156121be576121bd612952565b5b60006121cc878288016120d0565b94505060206121dd878288016120d0565b93505060406121ee878288016120fa565b92505060606121ff878288016120fa565b91505092959194509250565b60006020828403121561222157612220612952565b5b600061222f848285016120e5565b91505092915050565b60006020828403121561224e5761224d612952565b5b600061225c848285016120fa565b91505092915050565b60006020828403121561227b5761227a612952565b5b60006122898482850161210f565b91505092915050565b600080604083850312156122a9576122a8612952565b5b60006122b7858286016120fa565b92505060206122c8858286016120d0565b9150509250929050565b600080604083850312156122e9576122e8612952565b5b60006122f7858286016120fa565b9250506020612308858286016120fa565b9150509250929050565b61231b81612843565b82525050565b61232a8161288b565b82525050565b600061233b82612712565b612345818561271d565b93506123558185602086016128c1565b61235e81612957565b840191505092915050565b6000612376600b8361271d565b915061238182612968565b602082019050919050565b6000612399600e8361271d565b91506123a482612991565b602082019050919050565b60006123bc600f8361271d565b91506123c7826129ba565b602082019050919050565b60006123df60168361271d565b91506123ea826129e3565b602082019050919050565b600061240260188361271d565b915061240d82612a0c565b602082019050919050565b600061242560148361271d565b915061243082612a35565b602082019050919050565b600061244860188361271d565b915061245382612a5e565b602082019050919050565b600061246b601e8361271d565b915061247682612a87565b602082019050919050565b600061248e60158361271d565b915061249982612ab0565b602082019050919050565b60006124b160298361271d565b91506124bc82612ad9565b604082019050919050565b6124d081612881565b82525050565b60006020820190506124eb6000830184612312565b92915050565b60006060820190506125066000830186612312565b6125136020830185612312565b61252060408301846124c7565b949350505050565b600060408201905061253d6000830185612312565b61254a60208301846124c7565b9392505050565b60006020820190506125666000830184612321565b92915050565b600060208201905081810360008301526125868184612330565b905092915050565b600060208201905081810360008301526125a781612369565b9050919050565b600060208201905081810360008301526125c78161238c565b9050919050565b600060208201905081810360008301526125e7816123af565b9050919050565b60006020820190508181036000830152612607816123d2565b9050919050565b60006020820190508181036000830152612627816123f5565b9050919050565b6000602082019050818103600083015261264781612418565b9050919050565b600060208201905081810360008301526126678161243b565b9050919050565b600060208201905081810360008301526126878161245e565b9050919050565b600060208201905081810360008301526126a781612481565b9050919050565b600060208201905081810360008301526126c7816124a4565b9050919050565b60006020820190506126e360008301846124c7565b92915050565b60006040820190506126fe60008301856124c7565b61270b60208301846124c7565b9392505050565b600081519050919050565b600082825260208201905092915050565b600061273982612881565b915061274483612881565b9250827fffffffffffffffffffffffffffffffffffffffffffffffffffffffffffffffff03821115612779576127786128f4565b5b828201905092915050565b600061278f82612881565b915061279a83612881565b9250826127aa576127a9612923565b5b828204905092915050565b60006127c082612881565b91506127cb83612881565b9250817fffffffffffffffffffffffffffffffffffffffffffffffffffffffffffffffff0483118215151615612804576128036128f4565b5b828202905092915050565b600061281a82612881565b915061282583612881565b925082821015612838576128376128f4565b5b828203905092915050565b600061284e82612861565b9050919050565b60008115159050919050565b600073ffffffffffffffffffffffffffffffffffffffff82169050919050565b6000819050919050565b60006128968261289d565b9050919050565b60006128a8826128af565b9050919050565b60006128ba82612861565b9050919050565b60005b838110156128df5780820151818401526020810190506128c4565b838111156128ee576000848401525b50505050565b7f4e487b7100000000000000000000000000000000000000000000000000000000600052601160045260246000fd5b7f4e487b7100000000000000000000000000000000000000000000000000000000600052601260045260246000fd5b600080fd5b6000601f19601f8301169050919050565b7f53616d6520746f6b656e73000000000000000000000000000000000000000000600082015250565b7f496e76616c696420746f6b656e73000000000000000000000000000000000000600082015250565b7f5472616e73666572206661696c65640000000000000000000000000000000000600082015250565b7f496e73756666696369656e74206c697175696469747900000000000000000000600082015250565b7f4c50546f6b656e4350414d4d204d696e742066616c7365210000000000000000600082015250565b7f496e76616c696420746f6b656e20616d6f756e74000000000000000000000000600082015250565b7f496e76616c6964206c697175696469747920616d6f756e740000000000000000600082015250565b7f416d6f756e7473206d7573742062652067726561746572207468616e20300000600082015250565b7f496e76616c696420746f6b656e20616464726573730000000000000000000000600082015250565b7f416d6f756e7473206d7573742062652067726561746572207468616e20796f7560008201527f722062616c616e63650000000000000000000000000000000000000000000000602082015250565b612b3181612843565b8114612b3c57600080fd5b50565b612b4881612855565b8114612b5357600080fd5b50565b612b5f81612881565b8114612b6a57600080fd5b5056fe4d79546f6b656e285f66726f6d292e7472616e7366657246726f6d286d73672e73656e6465722c20616464726573732874686973292c20616d6f756e74496e29206661696c65644d79546f6b656e285f746f292e7472616e7366657246726f6d28616464726573732874686973292c206d73672e73656e6465722c20616d6f756e744f757429206661696c65644d79546f6b656e285f746f292e617070726f7665286d73672e73656e6465722c20616d6f756e744f757429a26469706673582212203c655df4769c129e28700d72f4d4db0a10d191ae8f6a8457f812faafdb87234f64736f6c6343000807003360806040523480156200001157600080fd5b5060405162001c0b38038062001c0b8339818101604052810190620000379190620001a3565b818181600390805190602001906200005192919062000075565b5080600490805190602001906200006a92919062000075565b5050505050620003ac565b8280546200008390620002bd565b90600052602060002090601f016020900481019282620000a75760008555620000f3565b82601f10620000c257805160ff1916838001178555620000f3565b82800160010185558215620000f3579182015b82811115620000f2578251825591602001919060010190620000d5565b5b50905062000102919062000106565b5090565b5b808211156200012157600081600090555060010162000107565b5090565b60006200013c620001368462000251565b62000228565b9050828152602081018484840111156200015b576200015a6200038c565b5b6200016884828562000287565b509392505050565b600082601f83011262000188576200018762000387565b5b81516200019a84826020860162000125565b91505092915050565b60008060408385031215620001bd57620001bc62000396565b5b600083015167ffffffffffffffff811115620001de57620001dd62000391565b5b620001ec8582860162000170565b925050602083015167ffffffffffffffff81111562000210576200020f62000391565b5b6200021e8582860162000170565b9150509250929050565b60006200023462000247565b9050620002428282620002f3565b919050565b6000604051905090565b600067ffffffffffffffff8211156200026f576200026e62000358565b5b6200027a826200039b565b9050602081019050919050565b60005b83811015620002a75780820151818401526020810190506200028a565b83811115620002b7576000848401525b50505050565b60006002820490506001821680620002d657607f821691505b60208210811415620002ed57620002ec62000329565b5b50919050565b620002fe826200039b565b810181811067ffffffffffffffff8211171562000320576200031f62000358565b5b80604052505050565b7f4e487b7100000000000000000000000000000000000000000000000000000000600052602260045260246000fd5b7f4e487b7100000000000000000000000000000000000000000000000000000000600052604160045260246000fd5b600080fd5b600080fd5b600080fd5b600080fd5b6000601f19601f8301169050919050565b61184f80620003bc6000396000f3fe608060405234801561001057600080fd5b50600436106100ea5760003560e01c8063665a11ca1161008c5780639dc29fac116100665780639dc29fac14610275578063a457c2d7146102a5578063a9059cbb146102d5578063dd62ed3e14610305576100ea565b8063665a11ca1461020957806370a082311461022757806395d89b4114610257576100ea565b806323b872dd116100c857806323b872dd1461015b578063313ce5671461018b57806339509351146101a957806340c10f19146101d9576100ea565b806306fdde03146100ef578063095ea7b31461010d57806318160ddd1461013d575b600080fd5b6100f7610335565b60405161010491906111e9565b60405180910390f35b61012760048036038101906101229190610fa0565b6103c7565b60405161013491906111ce565b60405180910390f35b6101456103ea565b604051610152919061134b565b60405180910390f35b61017560048036038101906101709190610f4d565b6103f4565b60405161018291906111ce565b60405180910390f35b610193610423565b6040516101a09190611366565b60405180910390f35b6101c360048036038101906101be9190610fa0565b61042c565b6040516101d091906111ce565b60405180910390f35b6101f360048036038101906101ee9190610fa0565b610463565b60405161020091906111ce565b60405180910390f35b610211610479565b60405161021e91906111b3565b60405180910390f35b610241600480360381019061023c9190610ee0565b61049f565b60405161024e919061134b565b60405180910390f35b61025f6104e7565b60405161026c91906111e9565b60405180910390f35b61028f600480360381019061028a9190610fa0565b610579565b60405161029c91906111ce565b60405180910390f35b6102bf60048036038101906102ba9190610fa0565b61058f565b6040516102cc91906111ce565b60405180910390f35b6102ef60048036038101906102ea9190610fa0565b610606565b6040516102fc91906111ce565b60405180910390f35b61031f600480360381019061031a9190610f0d565b610629565b60405161032c919061134b565b60405180910390f35b6060600380546103449061147b565b80601f01602080910402602001604051908101604052809291908181526020018280546103709061147b565b80156103bd5780601f10610392576101008083540402835291602001916103bd565b820191906000526020600020905b8154815290600101906020018083116103a057829003601f168201915b5050505050905090565b6000806103d26106b0565b90506103df8185856106b8565b600191505092915050565b6000600254905090565b6000806103ff6106b0565b905061040c858285610883565b61041785858561090f565b60019150509392505050565b60006012905090565b6000806104376106b0565b90506104588185856104498589610629565b610453919061139d565b6106b8565b600191505092915050565b600061046f8383610b87565b6001905092915050565b600560009054906101000a900473ffffffffffffffffffffffffffffffffffffffff1681565b60008060008373ffffffffffffffffffffffffffffffffffffffff1673ffffffffffffffffffffffffffffffffffffffff168152602001908152602001600020549050919050565b6060600480546104f69061147b565b80601f01602080910402602001604051908101604052809291908181526020018280546105229061147b565b801561056f5780601f106105445761010080835404028352916020019161056f565b820191906000526020600020905b81548152906001019060200180831161055257829003601f168201915b5050505050905090565b60006105858383610cde565b6001905092915050565b60008061059a6106b0565b905060006105a88286610629565b9050838110156105ed576040517f08c379a00000000000000000000000000000000000000000000000000000000081526004016105e49061130b565b60405180910390fd5b6105fa82868684036106b8565b60019250505092915050565b6000806106116106b0565b905061061e81858561090f565b600191505092915050565b6000600160008473ffffffffffffffffffffffffffffffffffffffff1673ffffffffffffffffffffffffffffffffffffffff16815260200190815260200160002060008373ffffffffffffffffffffffffffffffffffffffff1673ffffffffffffffffffffffffffffffffffffffff16815260200190815260200160002054905092915050565b600033905090565b600073ffffffffffffffffffffffffffffffffffffffff168373ffffffffffffffffffffffffffffffffffffffff161415610728576040517f08c379a000000000000000000000000000000000000000000000000000000000815260040161071f906112eb565b60405180910390fd5b600073ffffffffffffffffffffffffffffffffffffffff168273ffffffffffffffffffffffffffffffffffffffff161415610798576040517f08c379a000000000000000000000000000000000000000000000000000000000815260040161078f9061124b565b60405180910390fd5b80600160008573ffffffffffffffffffffffffffffffffffffffff1673ffffffffffffffffffffffffffffffffffffffff16815260200190815260200160002060008473ffffffffffffffffffffffffffffffffffffffff1673ffffffffffffffffffffffffffffffffffffffff168152602001908152602001600020819055508173ffffffffffffffffffffffffffffffffffffffff168373ffffffffffffffffffffffffffffffffffffffff167f8c5be1e5ebec7d5bd14f71427d1e84f3dd0314c0f7b2291e5b200ac8c7c3b92583604051610876919061134b565b60405180910390a3505050565b600061088f8484610629565b90507fffffffffffffffffffffffffffffffffffffffffffffffffffffffffffffffff811461090957818110156108fb576040517f08c379a00000000000000000000000000000000000000000000000000000000081526004016108f29061126b565b60405180910390fd5b61090884848484036106b8565b5b50505050565b600073ffffffffffffffffffffffffffffffffffffffff168373ffffffffffffffffffffffffffffffffffffffff16141561097f576040517f08c379a0000000000000000000000000000000000000000000000000000000008152600401610976906112cb565b60405180910390fd5b600073ffffffffffffffffffffffffffffffffffffffff168273ffffffffffffffffffffffffffffffffffffffff1614156109ef576040517f08c379a00000000000000000000000000000000000000000000000000000000081526004016109e69061120b565b60405180910390fd5b6109fa838383610eac565b60008060008573ffffffffffffffffffffffffffffffffffffffff1673ffffffffffffffffffffffffffffffffffffffff16815260200190815260200160002054905081811015610a80576040517f08c379a0000000000000000000000000000000000000000000000000000000008152600401610a779061128b565b60405180910390fd5b8181036000808673ffffffffffffffffffffffffffffffffffffffff1673ffffffffffffffffffffffffffffffffffffffff16815260200190815260200160002081905550816000808573ffffffffffffffffffffffffffffffffffffffff1673ffffffffffffffffffffffffffffffffffffffff168152602001908152602001600020600082825401925050819055508273ffffffffffffffffffffffffffffffffffffffff168473ffffffffffffffffffffffffffffffffffffffff167fddf252ad1be2c89b69c2b068fc378daa952ba7f163c4a11628f55a4df523b3ef84604051610b6e919061134b565b60405180910390a3610b81848484610eb1565b50505050565b600073ffffffffffffffffffffffffffffffffffffffff168273ffffffffffffffffffffffffffffffffffffffff161415610bf7576040517f08c379a0000000000000000000000000000000000000000000000000000000008152600401610bee9061132b565b60405180910390fd5b610c0360008383610eac565b8060026000828254610c15919061139d565b92505081905550806000808473ffffffffffffffffffffffffffffffffffffffff1673ffffffffffffffffffffffffffffffffffffffff168152602001908152602001600020600082825401925050819055508173ffffffffffffffffffffffffffffffffffffffff16600073ffffffffffffffffffffffffffffffffffffffff167fddf252ad1be2c89b69c2b068fc378daa952ba7f163c4a11628f55a4df523b3ef83604051610cc6919061134b565b60405180910390a3610cda60008383610eb1565b5050565b600073ffffffffffffffffffffffffffffffffffffffff168273ffffffffffffffffffffffffffffffffffffffff161415610d4e576040517f08c379a0000000000000000000000000000000000000000000000000000000008152600401610d45906112ab565b60405180910390fd5b610d5a82600083610eac565b60008060008473ffffffffffffffffffffffffffffffffffffffff1673ffffffffffffffffffffffffffffffffffffffff16815260200190815260200160002054905081811015610de0576040517f08c379a0000000000000000000000000000000000000000000000000000000008152600401610dd79061122b565b60405180910390fd5b8181036000808573ffffffffffffffffffffffffffffffffffffffff1673ffffffffffffffffffffffffffffffffffffffff1681526020019081526020016000208190555081600260008282540392505081905550600073ffffffffffffffffffffffffffffffffffffffff168373ffffffffffffffffffffffffffffffffffffffff167fddf252ad1be2c89b69c2b068fc378daa952ba7f163c4a11628f55a4df523b3ef84604051610e93919061134b565b60405180910390a3610ea783600084610eb1565b505050565b505050565b505050565b600081359050610ec5816117eb565b92915050565b600081359050610eda81611802565b92915050565b600060208284031215610ef657610ef561150b565b5b6000610f0484828501610eb6565b91505092915050565b60008060408385031215610f2457610f2361150b565b5b6000610f3285828601610eb6565b9250506020610f4385828601610eb6565b9150509250929050565b600080600060608486031215610f6657610f6561150b565b5b6000610f7486828701610eb6565b9350506020610f8586828701610eb6565b9250506040610f9686828701610ecb565b9150509250925092565b60008060408385031215610fb757610fb661150b565b5b6000610fc585828601610eb6565b9250506020610fd685828601610ecb565b9150509250929050565b610fe9816113f3565b82525050565b610ff881611405565b82525050565b600061100982611381565b611013818561138c565b9350611023818560208601611448565b61102c81611510565b840191505092915050565b600061104460238361138c565b915061104f82611521565b604082019050919050565b600061106760228361138c565b915061107282611570565b604082019050919050565b600061108a60228361138c565b9150611095826115bf565b604082019050919050565b60006110ad601d8361138c565b91506110b88261160e565b602082019050919050565b60006110d060268361138c565b91506110db82611637565b604082019050919050565b60006110f360218361138c565b91506110fe82611686565b604082019050919050565b600061111660258361138c565b9150611121826116d5565b604082019050919050565b600061113960248361138c565b915061114482611724565b604082019050919050565b600061115c60258361138c565b915061116782611773565b604082019050919050565b600061117f601f8361138c565b915061118a826117c2565b602082019050919050565b61119e81611431565b82525050565b6111ad8161143b565b82525050565b60006020820190506111c86000830184610fe0565b92915050565b60006020820190506111e36000830184610fef565b92915050565b600060208201905081810360008301526112038184610ffe565b905092915050565b6000602082019050818103600083015261122481611037565b9050919050565b600060208201905081810360008301526112448161105a565b9050919050565b600060208201905081810360008301526112648161107d565b9050919050565b60006020820190508181036000830152611284816110a0565b9050919050565b600060208201905081810360008301526112a4816110c3565b9050919050565b600060208201905081810360008301526112c4816110e6565b9050919050565b600060208201905081810360008301526112e481611109565b9050919050565b600060208201905081810360008301526113048161112c565b9050919050565b600060208201905081810360008301526113248161114f565b9050919050565b6000602082019050818103600083015261134481611172565b9050919050565b60006020820190506113606000830184611195565b92915050565b600060208201905061137b60008301846111a4565b92915050565b600081519050919050565b600082825260208201905092915050565b60006113a882611431565b91506113b383611431565b9250827fffffffffffffffffffffffffffffffffffffffffffffffffffffffffffffffff038211156113e8576113e76114ad565b5b828201905092915050565b60006113fe82611411565b9050919050565b60008115159050919050565b600073ffffffffffffffffffffffffffffffffffffffff82169050919050565b6000819050919050565b600060ff82169050919050565b60005b8381101561146657808201518184015260208101905061144b565b83811115611475576000848401525b50505050565b6000600282049050600182168061149357607f821691505b602082108114156114a7576114a66114dc565b5b50919050565b7f4e487b7100000000000000000000000000000000000000000000000000000000600052601160045260246000fd5b7f4e487b7100000000000000000000000000000000000000000000000000000000600052602260045260246000fd5b600080fd5b6000601f19601f8301169050919050565b7f45524332303a207472616e7366657220746f20746865207a65726f206164647260008201527f6573730000000000000000000000000000000000000000000000000000000000602082015250565b7f45524332303a206275726e20616d6f756e7420657863656564732062616c616e60008201527f6365000000000000000000000000000000000000000000000000000000000000602082015250565b7f45524332303a20617070726f766520746f20746865207a65726f20616464726560008201527f7373000000000000000000000000000000000000000000000000000000000000602082015250565b7f45524332303a20696e73756666696369656e7420616c6c6f77616e6365000000600082015250565b7f45524332303a207472616e7366657220616d6f756e742065786365656473206260008201527f616c616e63650000000000000000000000000000000000000000000000000000602082015250565b7f45524332303a206275726e2066726f6d20746865207a65726f2061646472657360008201527f7300000000000000000000000000000000000000000000000000000000000000602082015250565b7f45524332303a207472616e736665722066726f6d20746865207a65726f20616460008201527f6472657373000000000000000000000000000000000000000000000000000000602082015250565b7f45524332303a20617070726f76652066726f6d20746865207a65726f2061646460008201527f7265737300000000000000000000000000000000000000000000000000000000602082015250565b7f45524332303a2064656372656173656420616c6c6f77616e63652062656c6f7760008201527f207a65726f000000000000000000000000000000000000000000000000000000602082015250565b7f45524332303a206d696e7420746f20746865207a65726f206164647265737300600082015250565b6117f4816113f3565b81146117ff57600080fd5b50565b61180b81611431565b811461181657600080fd5b5056fea2646970667358221220e088817f1d3467b160349e9f00d4fbac8b2e877446763204850c8d30a3a46c4f64736f6c63430008070033",
  "linkReferences": {},
  "deployedLinkReferences": {}
}