{
  "_format": "hh-sol-artifact-1",
  "contractName": "MyToken",
  "sourceName": "contracts/MyToken.sol",
  "abi": [
    {
      "inputs": [
        {
          "internalType": "string",
          "name": "tokenName",
          "type": "string"
        },
        {
          "internalType": "string",
          "name": "tokenSymbol",
          "type": "string"
        },
        {
          "internalType": "uint256",
          "name": "initialSupply",
          "type": "uint256"
        }
      ],
      "stateMutability": "nonpayable",
      "type": "constructor"
    },
    {
      "anonymous": false,
      "inputs": [
        {
          "indexed": true,
          "internalType": "address",
          "name": "owner",
          "type": "address"
        },
        {
          "indexed": true,
          "internalType": "address",
          "name": "spender",
          "type": "address"
        },
        {
          "indexed": false,
          "internalType": "uint256",
          "name": "value",
          "type": "uint256"
        }
      ],
      "name": "Approval",
      "type": "event"
    },
    {
      "anonymous": false,
      "inputs": [
        {
          "indexed": true,
          "internalType": "address",
          "name": "from",
          "type": "address"
        },
        {
          "indexed": true,
          "internalType": "address",
          "name": "to",
          "type": "address"
        },
        {
          "indexed": false,
          "internalType": "uint256",
          "name": "value",
          "type": "uint256"
        }
      ],
      "name": "Transfer",
      "type": "event"
    },
    {
      "inputs": [
        {
          "internalType": "address",
          "name": "owner",
          "type": "address"
        },
        {
          "internalType": "address",
          "name": "spender",
          "type": "address"
        }
      ],
      "name": "allowance",
      "outputs": [
        {
          "internalType": "uint256",
          "name": "",
          "type": "uint256"
        }
      ],
      "stateMutability": "view",
      "type": "function"
    },
    {
      "inputs": [
        {
          "internalType": "address",
          "name": "spender",
          "type": "address"
        },
        {
          "internalType": "uint256",
          "name": "amount",
          "type": "uint256"
        }
      ],
      "name": "approve",
      "outputs": [
        {
          "internalType": "bool",
          "name": "",
          "type": "bool"
        }
      ],
      "stateMutability": "nonpayable",
      "type": "function"
    },
    {
      "inputs": [
        {
          "internalType": "address",
          "name": "account",
          "type": "address"
        }
      ],
      "name": "balanceOf",
      "outputs": [
        {
          "internalType": "uint256",
          "name": "",
          "type": "uint256"
        }
      ],
      "stateMutability": "view",
      "type": "function"
    },
    {
      "inputs": [],
      "name": "decimals",
      "outputs": [
        {
          "internalType": "uint8",
          "name": "",
          "type": "uint8"
        }
      ],
      "stateMutability": "view",
      "type": "function"
    },
    {
      "inputs": [
        {
          "internalType": "address",
          "name": "spender",
          "type": "address"
        },
        {
          "internalType": "uint256",
          "name": "subtractedValue",
          "type": "uint256"
        }
      ],
      "name": "decreaseAllowance",
      "outputs": [
        {
          "internalType": "bool",
          "name": "",
          "type": "bool"
        }
      ],
      "stateMutability": "nonpayable",
      "type": "function"
    },
    {
      "inputs": [],
      "name": "faucet",
      "outputs": [],
      "stateMutability": "nonpayable",
      "type": "function"
    },
    {
      "inputs": [
        {
          "internalType": "address",
          "name": "spender",
          "type": "address"
        },
        {
          "internalType": "uint256",
          "name": "addedValue",
          "type": "uint256"
        }
      ],
      "name": "increaseAllowance",
      "outputs": [
        {
          "internalType": "bool",
          "name": "",
          "type": "bool"
        }
      ],
      "stateMutability": "nonpayable",
      "type": "function"
    },
    {
      "inputs": [],
      "name": "name",
      "outputs": [
        {
          "internalType": "string",
          "name": "",
          "type": "string"
        }
      ],
      "stateMutability": "view",
      "type": "function"
    },
    {
      "inputs": [],
      "name": "symbol",
      "outputs": [
        {
          "internalType": "string",
          "name": "",
          "type": "string"
        }
      ],
      "stateMutability": "view",
      "type": "function"
    },
    {
      "inputs": [],
      "name": "totalSupply",
      "outputs": [
        {
          "internalType": "uint256",
          "name": "",
          "type": "uint256"
        }
      ],
      "stateMutability": "view",
      "type": "function"
    },
    {
      "inputs": [
        {
          "internalType": "address",
          "name": "to",
          "type": "address"
        },
        {
          "internalType": "uint256",
          "name": "amount",
          "type": "uint256"
        }
      ],
      "name": "transfer",
      "outputs": [
        {
          "internalType": "bool",
          "name": "",
          "type": "bool"
        }
      ],
      "stateMutability": "nonpayable",
      "type": "function"
    },
    {
      "inputs": [
        {
          "internalType": "address",
          "name": "from",
          "type": "address"
        },
        {
          "internalType": "address",
          "name": "to",
          "type": "address"
        },
        {
          "internalType": "uint256",
          "name": "amount",
          "type": "uint256"
        }
      ],
      "name": "transferFrom",
      "outputs": [
        {
          "internalType": "bool",
          "name": "",
          "type": "bool"
        }
      ],
      "stateMutability": "nonpayable",
      "type": "function"
    }
  ],
  "bytecode": "0x60806040523480156200001157600080fd5b5060405162001d1738038062001d17833981810160405281019062000037919062000345565b828281600390805190602001906200005192919062000200565b5080600490805190602001906200006a92919062000200565b5050506200007f33826200008860201b60201c565b505050620006c4565b600073ffffffffffffffffffffffffffffffffffffffff168273ffffffffffffffffffffffffffffffffffffffff161415620000fb576040517f08c379a0000000000000000000000000000000000000000000000000000000008152600401620000f29062000417565b60405180910390fd5b6200010f60008383620001f660201b60201c565b8060026000828254620001239190620004c6565b92505081905550806000808473ffffffffffffffffffffffffffffffffffffffff1673ffffffffffffffffffffffffffffffffffffffff168152602001908152602001600020600082825401925050819055508173ffffffffffffffffffffffffffffffffffffffff16600073ffffffffffffffffffffffffffffffffffffffff167fddf252ad1be2c89b69c2b068fc378daa952ba7f163c4a11628f55a4df523b3ef83604051620001d6919062000439565b60405180910390a3620001f260008383620001fb60201b60201c565b5050565b505050565b505050565b8280546200020e9062000563565b90600052602060002090601f0160209004810192826200023257600085556200027e565b82601f106200024d57805160ff19168380011785556200027e565b828001600101855582156200027e579182015b828111156200027d57825182559160200191906001019062000260565b5b5090506200028d919062000291565b5090565b5b80821115620002ac57600081600090555060010162000292565b5090565b6000620002c7620002c1846200047f565b62000456565b905082815260208101848484011115620002e657620002e562000661565b5b620002f38482856200052d565b509392505050565b600082601f8301126200031357620003126200065c565b5b815162000325848260208601620002b0565b91505092915050565b6000815190506200033f81620006aa565b92915050565b6000806000606084860312156200036157620003606200066b565b5b600084015167ffffffffffffffff81111562000382576200038162000666565b5b6200039086828701620002fb565b935050602084015167ffffffffffffffff811115620003b457620003b362000666565b5b620003c286828701620002fb565b9250506040620003d5868287016200032e565b9150509250925092565b6000620003ee601f83620004b5565b9150620003fb8262000681565b602082019050919050565b620004118162000523565b82525050565b600060208201905081810360008301526200043281620003df565b9050919050565b600060208201905062000450600083018462000406565b92915050565b60006200046262000475565b905062000470828262000599565b919050565b6000604051905090565b600067ffffffffffffffff8211156200049d576200049c6200062d565b5b620004a88262000670565b9050602081019050919050565b600082825260208201905092915050565b6000620004d38262000523565b9150620004e08362000523565b9250827fffffffffffffffffffffffffffffffffffffffffffffffffffffffffffffffff03821115620005185762000517620005cf565b5b828201905092915050565b6000819050919050565b60005b838110156200054d57808201518184015260208101905062000530565b838111156200055d576000848401525b50505050565b600060028204905060018216806200057c57607f821691505b60208210811415620005935762000592620005fe565b5b50919050565b620005a48262000670565b810181811067ffffffffffffffff82111715620005c657620005c56200062d565b5b80604052505050565b7f4e487b7100000000000000000000000000000000000000000000000000000000600052601160045260246000fd5b7f4e487b7100000000000000000000000000000000000000000000000000000000600052602260045260246000fd5b7f4e487b7100000000000000000000000000000000000000000000000000000000600052604160045260246000fd5b600080fd5b600080fd5b600080fd5b600080fd5b6000601f19601f8301169050919050565b7f45524332303a206d696e7420746f20746865207a65726f206164647265737300600082015250565b620006b58162000523565b8114620006c157600080fd5b50565b61164380620006d46000396000f3fe608060405234801561001057600080fd5b50600436106100b45760003560e01c806370a082311161007157806370a08231146101a357806395d89b41146101d3578063a457c2d7146101f1578063a9059cbb14610221578063dd62ed3e14610251578063de5f72fd14610281576100b4565b806306fdde03146100b9578063095ea7b3146100d757806318160ddd1461010757806323b872dd14610125578063313ce567146101555780633950935114610173575b600080fd5b6100c161028b565b6040516100ce9190610ee3565b60405180910390f35b6100f160048036038101906100ec9190610d0a565b61031d565b6040516100fe9190610ec8565b60405180910390f35b61010f610340565b60405161011c9190611005565b60405180910390f35b61013f600480360381019061013a9190610cb7565b61034a565b60405161014c9190610ec8565b60405180910390f35b61015d610379565b60405161016a9190611020565b60405180910390f35b61018d60048036038101906101889190610d0a565b610382565b60405161019a9190610ec8565b60405180910390f35b6101bd60048036038101906101b89190610c4a565b6103b9565b6040516101ca9190611005565b60405180910390f35b6101db610401565b6040516101e89190610ee3565b60405180910390f35b61020b60048036038101906102069190610d0a565b610493565b6040516102189190610ec8565b60405180910390f35b61023b60048036038101906102369190610d0a565b61050a565b6040516102489190610ec8565b60405180910390f35b61026b60048036038101906102669190610c77565b61052d565b6040516102789190611005565b60405180910390f35b6102896105b4565b005b60606003805461029a90611300565b80601f01602080910402602001604051908101604052809291908181526020018280546102c690611300565b80156103135780601f106102e857610100808354040283529160200191610313565b820191906000526020600020905b8154815290600101906020018083116102f657829003601f168201915b5050505050905090565b6000806103286105e8565b90506103358185856105f0565b600191505092915050565b6000600254905090565b6000806103556105e8565b90506103628582856107bb565b61036d858585610847565b60019150509392505050565b60006012905090565b60008061038d6105e8565b90506103ae81858561039f858961052d565b6103a99190611057565b6105f0565b600191505092915050565b60008060008373ffffffffffffffffffffffffffffffffffffffff1673ffffffffffffffffffffffffffffffffffffffff168152602001908152602001600020549050919050565b60606004805461041090611300565b80601f016020809104026020016040519081016040528092919081815260200182805461043c90611300565b80156104895780601f1061045e57610100808354040283529160200191610489565b820191906000526020600020905b81548152906001019060200180831161046c57829003601f168201915b5050505050905090565b60008061049e6105e8565b905060006104ac828661052d565b9050838110156104f1576040517f08c379a00000000000000000000000000000000000000000000000000000000081526004016104e890610fc5565b60405180910390fd5b6104fe82868684036105f0565b60019250505092915050565b6000806105156105e8565b9050610522818585610847565b600191505092915050565b6000600160008473ffffffffffffffffffffffffffffffffffffffff1673ffffffffffffffffffffffffffffffffffffffff16815260200190815260200160002060008373ffffffffffffffffffffffffffffffffffffffff1673ffffffffffffffffffffffffffffffffffffffff16815260200190815260200160002054905092915050565b60006105be610379565b90506105e5338260ff16600a6105d49190611100565b600a6105e0919061121e565b610abf565b50565b600033905090565b600073ffffffffffffffffffffffffffffffffffffffff168373ffffffffffffffffffffffffffffffffffffffff161415610660576040517f08c379a000000000000000000000000000000000000000000000000000000000815260040161065790610fa5565b60405180910390fd5b600073ffffffffffffffffffffffffffffffffffffffff168273ffffffffffffffffffffffffffffffffffffffff1614156106d0576040517f08c379a00000000000000000000000000000000000000000000000000000000081526004016106c790610f25565b60405180910390fd5b80600160008573ffffffffffffffffffffffffffffffffffffffff1673ffffffffffffffffffffffffffffffffffffffff16815260200190815260200160002060008473ffffffffffffffffffffffffffffffffffffffff1673ffffffffffffffffffffffffffffffffffffffff168152602001908152602001600020819055508173ffffffffffffffffffffffffffffffffffffffff168373ffffffffffffffffffffffffffffffffffffffff167f8c5be1e5ebec7d5bd14f71427d1e84f3dd0314c0f7b2291e5b200ac8c7c3b925836040516107ae9190611005565b60405180910390a3505050565b60006107c7848461052d565b90507fffffffffffffffffffffffffffffffffffffffffffffffffffffffffffffffff81146108415781811015610833576040517f08c379a000000000000000000000000000000000000000000000000000000000815260040161082a90610f45565b60405180910390fd5b61084084848484036105f0565b5b50505050565b600073ffffffffffffffffffffffffffffffffffffffff168373ffffffffffffffffffffffffffffffffffffffff1614156108b7576040517f08c379a00000000000000000000000000000000000000000000000000000000081526004016108ae90610f85565b60405180910390fd5b600073ffffffffffffffffffffffffffffffffffffffff168273ffffffffffffffffffffffffffffffffffffffff161415610927576040517f08c379a000000000000000000000000000000000000000000000000000000000815260040161091e90610f05565b60405180910390fd5b610932838383610c16565b60008060008573ffffffffffffffffffffffffffffffffffffffff1673ffffffffffffffffffffffffffffffffffffffff168152602001908152602001600020549050818110156109b8576040517f08c379a00000000000000000000000000000000000000000000000000000000081526004016109af90610f65565b60405180910390fd5b8181036000808673ffffffffffffffffffffffffffffffffffffffff1673ffffffffffffffffffffffffffffffffffffffff16815260200190815260200160002081905550816000808573ffffffffffffffffffffffffffffffffffffffff1673ffffffffffffffffffffffffffffffffffffffff168152602001908152602001600020600082825401925050819055508273ffffffffffffffffffffffffffffffffffffffff168473ffffffffffffffffffffffffffffffffffffffff167fddf252ad1be2c89b69c2b068fc378daa952ba7f163c4a11628f55a4df523b3ef84604051610aa69190611005565b60405180910390a3610ab9848484610c1b565b50505050565b600073ffffffffffffffffffffffffffffffffffffffff168273ffffffffffffffffffffffffffffffffffffffff161415610b2f576040517f08c379a0000000000000000000000000000000000000000000000000000000008152600401610b2690610fe5565b60405180910390fd5b610b3b60008383610c16565b8060026000828254610b4d9190611057565b92505081905550806000808473ffffffffffffffffffffffffffffffffffffffff1673ffffffffffffffffffffffffffffffffffffffff168152602001908152602001600020600082825401925050819055508173ffffffffffffffffffffffffffffffffffffffff16600073ffffffffffffffffffffffffffffffffffffffff167fddf252ad1be2c89b69c2b068fc378daa952ba7f163c4a11628f55a4df523b3ef83604051610bfe9190611005565b60405180910390a3610c1260008383610c1b565b5050565b505050565b505050565b600081359050610c2f816115df565b92915050565b600081359050610c44816115f6565b92915050565b600060208284031215610c6057610c5f611390565b5b6000610c6e84828501610c20565b91505092915050565b60008060408385031215610c8e57610c8d611390565b5b6000610c9c85828601610c20565b9250506020610cad85828601610c20565b9150509250929050565b600080600060608486031215610cd057610ccf611390565b5b6000610cde86828701610c20565b9350506020610cef86828701610c20565b9250506040610d0086828701610c35565b9150509250925092565b60008060408385031215610d2157610d20611390565b5b6000610d2f85828601610c20565b9250506020610d4085828601610c35565b9150509250929050565b610d538161128a565b82525050565b6000610d648261103b565b610d6e8185611046565b9350610d7e8185602086016112cd565b610d8781611395565b840191505092915050565b6000610d9f602383611046565b9150610daa826113b3565b604082019050919050565b6000610dc2602283611046565b9150610dcd82611402565b604082019050919050565b6000610de5601d83611046565b9150610df082611451565b602082019050919050565b6000610e08602683611046565b9150610e138261147a565b604082019050919050565b6000610e2b602583611046565b9150610e36826114c9565b604082019050919050565b6000610e4e602483611046565b9150610e5982611518565b604082019050919050565b6000610e71602583611046565b9150610e7c82611567565b604082019050919050565b6000610e94601f83611046565b9150610e9f826115b6565b602082019050919050565b610eb3816112b6565b82525050565b610ec2816112c0565b82525050565b6000602082019050610edd6000830184610d4a565b92915050565b60006020820190508181036000830152610efd8184610d59565b905092915050565b60006020820190508181036000830152610f1e81610d92565b9050919050565b60006020820190508181036000830152610f3e81610db5565b9050919050565b60006020820190508181036000830152610f5e81610dd8565b9050919050565b60006020820190508181036000830152610f7e81610dfb565b9050919050565b60006020820190508181036000830152610f9e81610e1e565b9050919050565b60006020820190508181036000830152610fbe81610e41565b9050919050565b60006020820190508181036000830152610fde81610e64565b9050919050565b60006020820190508181036000830152610ffe81610e87565b9050919050565b600060208201905061101a6000830184610eaa565b92915050565b60006020820190506110356000830184610eb9565b92915050565b600081519050919050565b600082825260208201905092915050565b6000611062826112b6565b915061106d836112b6565b9250827fffffffffffffffffffffffffffffffffffffffffffffffffffffffffffffffff038211156110a2576110a1611332565b5b828201905092915050565b6000808291508390505b60018511156110f7578086048111156110d3576110d2611332565b5b60018516156110e25780820291505b80810290506110f0856113a6565b94506110b7565b94509492505050565b600061110b826112b6565b9150611116836112b6565b92506111437fffffffffffffffffffffffffffffffffffffffffffffffffffffffffffffffff848461114b565b905092915050565b60008261115b5760019050611217565b816111695760009050611217565b816001811461117f5760028114611189576111b8565b6001915050611217565b60ff84111561119b5761119a611332565b5b8360020a9150848211156111b2576111b1611332565b5b50611217565b5060208310610133831016604e8410600b84101617156111ed5782820a9050838111156111e8576111e7611332565b5b611217565b6111fa84848460016110ad565b9250905081840481111561121157611210611332565b5b81810290505b9392505050565b6000611229826112b6565b9150611234836112b6565b9250817fffffffffffffffffffffffffffffffffffffffffffffffffffffffffffffffff048311821515161561126d5761126c611332565b5b828202905092915050565b600061128382611296565b9050919050565b60008115159050919050565b600073ffffffffffffffffffffffffffffffffffffffff82169050919050565b6000819050919050565b600060ff82169050919050565b60005b838110156112eb5780820151818401526020810190506112d0565b838111156112fa576000848401525b50505050565b6000600282049050600182168061131857607f821691505b6020821081141561132c5761132b611361565b5b50919050565b7f4e487b7100000000000000000000000000000000000000000000000000000000600052601160045260246000fd5b7f4e487b7100000000000000000000000000000000000000000000000000000000600052602260045260246000fd5b600080fd5b6000601f19601f8301169050919050565b60008160011c9050919050565b7f45524332303a207472616e7366657220746f20746865207a65726f206164647260008201527f6573730000000000000000000000000000000000000000000000000000000000602082015250565b7f45524332303a20617070726f766520746f20746865207a65726f20616464726560008201527f7373000000000000000000000000000000000000000000000000000000000000602082015250565b7f45524332303a20696e73756666696369656e7420616c6c6f77616e6365000000600082015250565b7f45524332303a207472616e7366657220616d6f756e742065786365656473206260008201527f616c616e63650000000000000000000000000000000000000000000000000000602082015250565b7f45524332303a207472616e736665722066726f6d20746865207a65726f20616460008201527f6472657373000000000000000000000000000000000000000000000000000000602082015250565b7f45524332303a20617070726f76652066726f6d20746865207a65726f2061646460008201527f7265737300000000000000000000000000000000000000000000000000000000602082015250565b7f45524332303a2064656372656173656420616c6c6f77616e63652062656c6f7760008201527f207a65726f000000000000000000000000000000000000000000000000000000602082015250565b7f45524332303a206d696e7420746f20746865207a65726f206164647265737300600082015250565b6115e881611278565b81146115f357600080fd5b50565b6115ff816112b6565b811461160a57600080fd5b5056fea26469706673582212201f44f0a4434c511e3fc6de64f4bc028e2982b8f8d83b8a08f2bc9a87d70ef96664736f6c63430008070033",
  "linkReferences": {},
  "deployedLinkReferences": {}
}